{
  "_format": "hh-sol-artifact-1",
  "contractName": "StudentContract",
  "sourceName": "contracts/StudentContract.sol",
  "abi": [
    {
      "inputs": [],
      "stateMutability": "nonpayable",
      "type": "constructor"
    },
    {
      "inputs": [],
      "name": "AccessControlBadConfirmation",
      "type": "error"
    },
    {
      "inputs": [
        {
          "internalType": "address",
          "name": "account",
          "type": "address"
        },
        {
          "internalType": "bytes32",
          "name": "neededRole",
          "type": "bytes32"
        }
      ],
      "name": "AccessControlUnauthorizedAccount",
      "type": "error"
    },
    {
      "anonymous": false,
      "inputs": [
        {
          "indexed": true,
          "internalType": "bytes32",
          "name": "role",
          "type": "bytes32"
        },
        {
          "indexed": true,
          "internalType": "bytes32",
          "name": "previousAdminRole",
          "type": "bytes32"
        },
        {
          "indexed": true,
          "internalType": "bytes32",
          "name": "newAdminRole",
          "type": "bytes32"
        }
      ],
      "name": "RoleAdminChanged",
      "type": "event"
    },
    {
      "anonymous": false,
      "inputs": [
        {
          "indexed": true,
          "internalType": "bytes32",
          "name": "role",
          "type": "bytes32"
        },
        {
          "indexed": true,
          "internalType": "address",
          "name": "account",
          "type": "address"
        },
        {
          "indexed": true,
          "internalType": "address",
          "name": "sender",
          "type": "address"
        }
      ],
      "name": "RoleGranted",
      "type": "event"
    },
    {
      "anonymous": false,
      "inputs": [
        {
          "indexed": true,
          "internalType": "bytes32",
          "name": "role",
          "type": "bytes32"
        },
        {
          "indexed": true,
          "internalType": "address",
          "name": "account",
          "type": "address"
        },
        {
          "indexed": true,
          "internalType": "address",
          "name": "sender",
          "type": "address"
        }
      ],
      "name": "RoleRevoked",
      "type": "event"
    },
    {
      "inputs": [],
      "name": "ADMIN_ROLE",
      "outputs": [
        {
          "internalType": "bytes32",
          "name": "",
          "type": "bytes32"
        }
      ],
      "stateMutability": "view",
      "type": "function"
    },
    {
      "inputs": [],
      "name": "DEFAULT_ADMIN_ROLE",
      "outputs": [
        {
          "internalType": "bytes32",
          "name": "",
          "type": "bytes32"
        }
      ],
      "stateMutability": "view",
      "type": "function"
    },
    {
      "inputs": [
        {
          "internalType": "uint256",
          "name": "_courseId",
          "type": "uint256"
        }
      ],
      "name": "enrollInCourse",
      "outputs": [],
      "stateMutability": "nonpayable",
      "type": "function"
    },
    {
      "inputs": [
        {
          "internalType": "address",
          "name": "_student",
          "type": "address"
        }
      ],
      "name": "getEnrolledCourses",
      "outputs": [
        {
          "internalType": "uint256[]",
          "name": "",
          "type": "uint256[]"
        }
      ],
      "stateMutability": "view",
      "type": "function"
    },
    {
      "inputs": [
        {
          "internalType": "bytes32",
          "name": "role",
          "type": "bytes32"
        }
      ],
      "name": "getRoleAdmin",
      "outputs": [
        {
          "internalType": "bytes32",
          "name": "",
          "type": "bytes32"
        }
      ],
      "stateMutability": "view",
      "type": "function"
    },
    {
      "inputs": [
        {
          "internalType": "address",
          "name": "_student",
          "type": "address"
        }
      ],
      "name": "getStudentName",
      "outputs": [
        {
          "internalType": "string",
          "name": "",
          "type": "string"
        }
      ],
      "stateMutability": "view",
      "type": "function"
    },
    {
      "inputs": [
        {
          "internalType": "bytes32",
          "name": "role",
          "type": "bytes32"
        },
        {
          "internalType": "address",
          "name": "account",
          "type": "address"
        }
      ],
      "name": "grantRole",
      "outputs": [],
      "stateMutability": "nonpayable",
      "type": "function"
    },
    {
      "inputs": [
        {
          "internalType": "bytes32",
          "name": "role",
          "type": "bytes32"
        },
        {
          "internalType": "address",
          "name": "account",
          "type": "address"
        }
      ],
      "name": "hasRole",
      "outputs": [
        {
          "internalType": "bool",
          "name": "",
          "type": "bool"
        }
      ],
      "stateMutability": "view",
      "type": "function"
    },
    {
      "inputs": [
        {
          "internalType": "address",
          "name": "_student",
          "type": "address"
        }
      ],
      "name": "isRegistered",
      "outputs": [
        {
          "internalType": "bool",
          "name": "",
          "type": "bool"
        }
      ],
      "stateMutability": "view",
      "type": "function"
    },
    {
      "inputs": [
        {
          "internalType": "string",
          "name": "_name",
          "type": "string"
        }
      ],
      "name": "registerStudent",
      "outputs": [],
      "stateMutability": "nonpayable",
      "type": "function"
    },
    {
      "inputs": [
        {
          "internalType": "bytes32",
          "name": "role",
          "type": "bytes32"
        },
        {
          "internalType": "address",
          "name": "callerConfirmation",
          "type": "address"
        }
      ],
      "name": "renounceRole",
      "outputs": [],
      "stateMutability": "nonpayable",
      "type": "function"
    },
    {
      "inputs": [
        {
          "internalType": "bytes32",
          "name": "role",
          "type": "bytes32"
        },
        {
          "internalType": "address",
          "name": "account",
          "type": "address"
        }
      ],
      "name": "revokeRole",
      "outputs": [],
      "stateMutability": "nonpayable",
      "type": "function"
    },
    {
      "inputs": [
        {
          "internalType": "address",
          "name": "",
          "type": "address"
        }
      ],
      "name": "students",
      "outputs": [
        {
          "internalType": "string",
          "name": "name",
          "type": "string"
        }
      ],
      "stateMutability": "view",
      "type": "function"
    },
    {
      "inputs": [
        {
          "internalType": "bytes4",
          "name": "interfaceId",
          "type": "bytes4"
        }
      ],
      "name": "supportsInterface",
      "outputs": [
        {
          "internalType": "bool",
          "name": "",
          "type": "bool"
        }
      ],
      "stateMutability": "view",
      "type": "function"
    }
  ],
  "bytecode": "0x608060405234801561001057600080fd5b506100246000801b3361002a60201b60201c565b50610199565b600061003c838361012760201b60201c565b61011c57600160008085815260200190815260200160002060000160008473ffffffffffffffffffffffffffffffffffffffff1673ffffffffffffffffffffffffffffffffffffffff16815260200190815260200160002060006101000a81548160ff0219169083151502179055506100b961019160201b60201c565b73ffffffffffffffffffffffffffffffffffffffff168273ffffffffffffffffffffffffffffffffffffffff16847f2f8788117e7eff1d82e926ec794901d17c78024a50270940304540a733656f0d60405160405180910390a460019050610121565b600090505b92915050565b600080600084815260200190815260200160002060000160008373ffffffffffffffffffffffffffffffffffffffff1673ffffffffffffffffffffffffffffffffffffffff16815260200190815260200160002060009054906101000a900460ff16905092915050565b600033905090565b611738806101a86000396000f3fe608060405234801561001057600080fd5b50600436106100ea5760003560e01c806371e174451161008c578063a217fddf11610066578063a217fddf1461026d578063a6c807a91461028b578063c3c5a547146102bb578063d547741f146102eb576100ea565b806371e174451461020357806375b238fc1461021f57806391d148541461023d576100ea565b80632e0308fb116100c85780632e0308fb1461017f5780632f2ff15d146101af57806336568abe146101cb5780635e52da27146101e7576100ea565b806301ffc9a7146100ef5780630993031e1461011f578063248a9ca31461014f575b600080fd5b61010960048036038101906101049190610d4b565b610307565b6040516101169190610d93565b60405180910390f35b61013960048036038101906101349190610e0c565b610381565b6040516101469190610f01565b60405180910390f35b61016960048036038101906101649190610f59565b61041b565b6040516101769190610f95565b60405180910390f35b61019960048036038101906101949190610e0c565b61043a565b6040516101a69190611040565b60405180910390f35b6101c960048036038101906101c49190611062565b61050e565b005b6101e560048036038101906101e09190611062565b610530565b005b61020160048036038101906101fc91906110ce565b6105ab565b005b61021d60048036038101906102189190611230565b6107a6565b005b61022761088a565b6040516102349190610f95565b60405180910390f35b61025760048036038101906102529190611062565b610891565b6040516102649190610d93565b60405180910390f35b6102756108fb565b6040516102829190610f95565b60405180910390f35b6102a560048036038101906102a09190610e0c565b610902565b6040516102b29190611040565b60405180910390f35b6102d560048036038101906102d09190610e0c565b6109a8565b6040516102e29190610d93565b60405180910390f35b61030560048036038101906103009190611062565b610a03565b005b60007f7965db0b000000000000000000000000000000000000000000000000000000007bffffffffffffffffffffffffffffffffffffffffffffffffffffffff1916827bffffffffffffffffffffffffffffffffffffffffffffffffffffffff1916148061037a575061037982610a25565b5b9050919050565b6060600160008373ffffffffffffffffffffffffffffffffffffffff1673ffffffffffffffffffffffffffffffffffffffff16815260200190815260200160002060010180548060200260200160405190810160405280929190818152602001828054801561040f57602002820191906000526020600020905b8154815260200190600101908083116103fb575b50505050509050919050565b6000806000838152602001908152602001600020600101549050919050565b6060600160008373ffffffffffffffffffffffffffffffffffffffff1673ffffffffffffffffffffffffffffffffffffffff1681526020019081526020016000206000018054610489906112a8565b80601f01602080910402602001604051908101604052809291908181526020018280546104b5906112a8565b80156105025780601f106104d757610100808354040283529160200191610502565b820191906000526020600020905b8154815290600101906020018083116104e557829003601f168201915b50505050509050919050565b6105178261041b565b61052081610a8f565b61052a8383610aa3565b50505050565b610538610b94565b73ffffffffffffffffffffffffffffffffffffffff168173ffffffffffffffffffffffffffffffffffffffff161461059c576040517f6697b23200000000000000000000000000000000000000000000000000000000815260040160405180910390fd5b6105a68282610b9c565b505050565b6000600160003373ffffffffffffffffffffffffffffffffffffffff1673ffffffffffffffffffffffffffffffffffffffff16815260200190815260200160002060000180546105fa906112a8565b90500361063c576040517f08c379a000000000000000000000000000000000000000000000000000000000815260040161063390611325565b60405180910390fd5b60005b600160003373ffffffffffffffffffffffffffffffffffffffff1673ffffffffffffffffffffffffffffffffffffffff168152602001908152602001600020600101805490508110156107395781600160003373ffffffffffffffffffffffffffffffffffffffff1673ffffffffffffffffffffffffffffffffffffffff16815260200190815260200160002060010182815481106106e1576106e0611345565b5b90600052602060002001540361072c576040517f08c379a0000000000000000000000000000000000000000000000000000000008152600401610723906113c0565b60405180910390fd5b808060010191505061063f565b50600160003373ffffffffffffffffffffffffffffffffffffffff1673ffffffffffffffffffffffffffffffffffffffff16815260200190815260200160002060010181908060018154018082558091505060019003906000526020600020016000909190919091505550565b6000600160003373ffffffffffffffffffffffffffffffffffffffff1673ffffffffffffffffffffffffffffffffffffffff16815260200190815260200160002060000180546107f5906112a8565b905014610837576040517f08c379a000000000000000000000000000000000000000000000000000000000815260040161082e9061142c565b60405180910390fd5b80600160003373ffffffffffffffffffffffffffffffffffffffff1673ffffffffffffffffffffffffffffffffffffffff168152602001908152602001600020600001908161088691906115f8565b5050565b6000801b81565b600080600084815260200190815260200160002060000160008373ffffffffffffffffffffffffffffffffffffffff1673ffffffffffffffffffffffffffffffffffffffff16815260200190815260200160002060009054906101000a900460ff16905092915050565b6000801b81565b6001602052806000526040600020600091509050806000018054610925906112a8565b80601f0160208091040260200160405190810160405280929190818152602001828054610951906112a8565b801561099e5780601f106109735761010080835404028352916020019161099e565b820191906000526020600020905b81548152906001019060200180831161098157829003601f168201915b5050505050905081565b600080600160008473ffffffffffffffffffffffffffffffffffffffff1673ffffffffffffffffffffffffffffffffffffffff16815260200190815260200160002060000180546109f8906112a8565b905014159050919050565b610a0c8261041b565b610a1581610a8f565b610a1f8383610b9c565b50505050565b60007f01ffc9a7000000000000000000000000000000000000000000000000000000007bffffffffffffffffffffffffffffffffffffffffffffffffffffffff1916827bffffffffffffffffffffffffffffffffffffffffffffffffffffffff1916149050919050565b610aa081610a9b610b94565b610c8e565b50565b6000610aaf8383610891565b610b8957600160008085815260200190815260200160002060000160008473ffffffffffffffffffffffffffffffffffffffff1673ffffffffffffffffffffffffffffffffffffffff16815260200190815260200160002060006101000a81548160ff021916908315150217905550610b26610b94565b73ffffffffffffffffffffffffffffffffffffffff168273ffffffffffffffffffffffffffffffffffffffff16847f2f8788117e7eff1d82e926ec794901d17c78024a50270940304540a733656f0d60405160405180910390a460019050610b8e565b600090505b92915050565b600033905090565b6000610ba88383610891565b15610c8357600080600085815260200190815260200160002060000160008473ffffffffffffffffffffffffffffffffffffffff1673ffffffffffffffffffffffffffffffffffffffff16815260200190815260200160002060006101000a81548160ff021916908315150217905550610c20610b94565b73ffffffffffffffffffffffffffffffffffffffff168273ffffffffffffffffffffffffffffffffffffffff16847ff6391f5c32d9c69d2a47ea670b442974b53935d1edc7fd64eb21e047a839171b60405160405180910390a460019050610c88565b600090505b92915050565b610c988282610891565b610cdb5780826040517fe2517d3f000000000000000000000000000000000000000000000000000000008152600401610cd29291906116d9565b60405180910390fd5b5050565b6000604051905090565b600080fd5b600080fd5b60007fffffffff0000000000000000000000000000000000000000000000000000000082169050919050565b610d2881610cf3565b8114610d3357600080fd5b50565b600081359050610d4581610d1f565b92915050565b600060208284031215610d6157610d60610ce9565b5b6000610d6f84828501610d36565b91505092915050565b60008115159050919050565b610d8d81610d78565b82525050565b6000602082019050610da86000830184610d84565b92915050565b600073ffffffffffffffffffffffffffffffffffffffff82169050919050565b6000610dd982610dae565b9050919050565b610de981610dce565b8114610df457600080fd5b50565b600081359050610e0681610de0565b92915050565b600060208284031215610e2257610e21610ce9565b5b6000610e3084828501610df7565b91505092915050565b600081519050919050565b600082825260208201905092915050565b6000819050602082019050919050565b6000819050919050565b610e7881610e65565b82525050565b6000610e8a8383610e6f565b60208301905092915050565b6000602082019050919050565b6000610eae82610e39565b610eb88185610e44565b9350610ec383610e55565b8060005b83811015610ef4578151610edb8882610e7e565b9750610ee683610e96565b925050600181019050610ec7565b5085935050505092915050565b60006020820190508181036000830152610f1b8184610ea3565b905092915050565b6000819050919050565b610f3681610f23565b8114610f4157600080fd5b50565b600081359050610f5381610f2d565b92915050565b600060208284031215610f6f57610f6e610ce9565b5b6000610f7d84828501610f44565b91505092915050565b610f8f81610f23565b82525050565b6000602082019050610faa6000830184610f86565b92915050565b600081519050919050565b600082825260208201905092915050565b60005b83811015610fea578082015181840152602081019050610fcf565b60008484015250505050565b6000601f19601f8301169050919050565b600061101282610fb0565b61101c8185610fbb565b935061102c818560208601610fcc565b61103581610ff6565b840191505092915050565b6000602082019050818103600083015261105a8184611007565b905092915050565b6000806040838503121561107957611078610ce9565b5b600061108785828601610f44565b925050602061109885828601610df7565b9150509250929050565b6110ab81610e65565b81146110b657600080fd5b50565b6000813590506110c8816110a2565b92915050565b6000602082840312156110e4576110e3610ce9565b5b60006110f2848285016110b9565b91505092915050565b600080fd5b600080fd5b7f4e487b7100000000000000000000000000000000000000000000000000000000600052604160045260246000fd5b61113d82610ff6565b810181811067ffffffffffffffff8211171561115c5761115b611105565b5b80604052505050565b600061116f610cdf565b905061117b8282611134565b919050565b600067ffffffffffffffff82111561119b5761119a611105565b5b6111a482610ff6565b9050602081019050919050565b82818337600083830152505050565b60006111d36111ce84611180565b611165565b9050828152602081018484840111156111ef576111ee611100565b5b6111fa8482856111b1565b509392505050565b600082601f830112611217576112166110fb565b5b81356112278482602086016111c0565b91505092915050565b60006020828403121561124657611245610ce9565b5b600082013567ffffffffffffffff81111561126457611263610cee565b5b61127084828501611202565b91505092915050565b7f4e487b7100000000000000000000000000000000000000000000000000000000600052602260045260246000fd5b600060028204905060018216806112c057607f821691505b6020821081036112d3576112d2611279565b5b50919050565b7f53747564656e74206e6f74207265676973746572656400000000000000000000600082015250565b600061130f601683610fbb565b915061131a826112d9565b602082019050919050565b6000602082019050818103600083015261133e81611302565b9050919050565b7f4e487b7100000000000000000000000000000000000000000000000000000000600052603260045260246000fd5b7f416c726561647920656e726f6c6c656420696e207468697320636f7572736500600082015250565b60006113aa601f83610fbb565b91506113b582611374565b602082019050919050565b600060208201905081810360008301526113d98161139d565b9050919050565b7f53747564656e7420616c72656164792072656769737465726564000000000000600082015250565b6000611416601a83610fbb565b9150611421826113e0565b602082019050919050565b6000602082019050818103600083015261144581611409565b9050919050565b60008190508160005260206000209050919050565b60006020601f8301049050919050565b600082821b905092915050565b6000600883026114ae7fffffffffffffffffffffffffffffffffffffffffffffffffffffffffffffffff82611471565b6114b88683611471565b95508019841693508086168417925050509392505050565b6000819050919050565b60006114f56114f06114eb84610e65565b6114d0565b610e65565b9050919050565b6000819050919050565b61150f836114da565b61152361151b826114fc565b84845461147e565b825550505050565b600090565b61153861152b565b611543818484611506565b505050565b5b818110156115675761155c600082611530565b600181019050611549565b5050565b601f8211156115ac5761157d8161144c565b61158684611461565b81016020851015611595578190505b6115a96115a185611461565b830182611548565b50505b505050565b600082821c905092915050565b60006115cf600019846008026115b1565b1980831691505092915050565b60006115e883836115be565b9150826002028217905092915050565b61160182610fb0565b67ffffffffffffffff81111561161a57611619611105565b5b61162482546112a8565b61162f82828561156b565b600060209050601f8311600181146116625760008415611650578287015190505b61165a85826115dc565b8655506116c2565b601f1984166116708661144c565b60005b8281101561169857848901518255600182019150602085019450602081019050611673565b868310156116b557848901516116b1601f8916826115be565b8355505b6001600288020188555050505b505050505050565b6116d381610dce565b82525050565b60006040820190506116ee60008301856116ca565b6116fb6020830184610f86565b939250505056fea264697066735822122040b190d06d14ea31e64b40667837f75fecd46f38356312579d1aab03bb51b3de64736f6c634300081b0033",
  "linkReferences": {},
  "deployedLinkReferences": {}
}