{
  "_format": "hh-sol-artifact-1",
  "contractName": "CourseContract",
  "sourceName": "contracts/CourseContract.sol",
  "abi": [
    {
      "inputs": [],
      "stateMutability": "nonpayable",
      "type": "constructor"
    },
    {
      "inputs": [],
      "name": "AccessControlBadConfirmation",
      "type": "error"
    },
    {
      "inputs": [
        {
          "internalType": "address",
          "name": "account",
          "type": "address"
        },
        {
          "internalType": "bytes32",
          "name": "neededRole",
          "type": "bytes32"
        }
      ],
      "name": "AccessControlUnauthorizedAccount",
      "type": "error"
    },
    {
      "anonymous": false,
      "inputs": [
        {
          "indexed": true,
          "internalType": "bytes32",
          "name": "role",
          "type": "bytes32"
        },
        {
          "indexed": true,
          "internalType": "bytes32",
          "name": "previousAdminRole",
          "type": "bytes32"
        },
        {
          "indexed": true,
          "internalType": "bytes32",
          "name": "newAdminRole",
          "type": "bytes32"
        }
      ],
      "name": "RoleAdminChanged",
      "type": "event"
    },
    {
      "anonymous": false,
      "inputs": [
        {
          "indexed": true,
          "internalType": "bytes32",
          "name": "role",
          "type": "bytes32"
        },
        {
          "indexed": true,
          "internalType": "address",
          "name": "account",
          "type": "address"
        },
        {
          "indexed": true,
          "internalType": "address",
          "name": "sender",
          "type": "address"
        }
      ],
      "name": "RoleGranted",
      "type": "event"
    },
    {
      "anonymous": false,
      "inputs": [
        {
          "indexed": true,
          "internalType": "bytes32",
          "name": "role",
          "type": "bytes32"
        },
        {
          "indexed": true,
          "internalType": "address",
          "name": "account",
          "type": "address"
        },
        {
          "indexed": true,
          "internalType": "address",
          "name": "sender",
          "type": "address"
        }
      ],
      "name": "RoleRevoked",
      "type": "event"
    },
    {
      "inputs": [],
      "name": "ADMIN_ROLE",
      "outputs": [
        {
          "internalType": "bytes32",
          "name": "",
          "type": "bytes32"
        }
      ],
      "stateMutability": "view",
      "type": "function"
    },
    {
      "inputs": [],
      "name": "DEFAULT_ADMIN_ROLE",
      "outputs": [
        {
          "internalType": "bytes32",
          "name": "",
          "type": "bytes32"
        }
      ],
      "stateMutability": "view",
      "type": "function"
    },
    {
      "inputs": [],
      "name": "INSTRUCTOR_ROLE",
      "outputs": [
        {
          "internalType": "bytes32",
          "name": "",
          "type": "bytes32"
        }
      ],
      "stateMutability": "view",
      "type": "function"
    },
    {
      "inputs": [
        {
          "internalType": "string",
          "name": "_title",
          "type": "string"
        },
        {
          "internalType": "string",
          "name": "_description",
          "type": "string"
        },
        {
          "internalType": "uint256",
          "name": "_price",
          "type": "uint256"
        },
        {
          "internalType": "string",
          "name": "_image",
          "type": "string"
        }
      ],
      "name": "addCourse",
      "outputs": [],
      "stateMutability": "nonpayable",
      "type": "function"
    },
    {
      "inputs": [],
      "name": "courseCount",
      "outputs": [
        {
          "internalType": "uint256",
          "name": "",
          "type": "uint256"
        }
      ],
      "stateMutability": "view",
      "type": "function"
    },
    {
      "inputs": [
        {
          "internalType": "uint256",
          "name": "",
          "type": "uint256"
        }
      ],
      "name": "courses",
      "outputs": [
        {
          "internalType": "uint256",
          "name": "id",
          "type": "uint256"
        },
        {
          "internalType": "string",
          "name": "title",
          "type": "string"
        },
        {
          "internalType": "string",
          "name": "description",
          "type": "string"
        },
        {
          "internalType": "uint256",
          "name": "price",
          "type": "uint256"
        },
        {
          "internalType": "address",
          "name": "instructor",
          "type": "address"
        },
        {
          "internalType": "string",
          "name": "image",
          "type": "string"
        },
        {
          "internalType": "uint256",
          "name": "rating",
          "type": "uint256"
        }
      ],
      "stateMutability": "view",
      "type": "function"
    },
    {
      "inputs": [
        {
          "internalType": "uint256",
          "name": "_courseId",
          "type": "uint256"
        }
      ],
      "name": "getCourse",
      "outputs": [
        {
          "internalType": "uint256",
          "name": "id",
          "type": "uint256"
        },
        {
          "internalType": "string",
          "name": "title",
          "type": "string"
        },
        {
          "internalType": "string",
          "name": "description",
          "type": "string"
        },
        {
          "internalType": "uint256",
          "name": "price",
          "type": "uint256"
        },
        {
          "internalType": "address",
          "name": "instructor",
          "type": "address"
        },
        {
          "internalType": "string",
          "name": "image",
          "type": "string"
        },
        {
          "internalType": "uint256",
          "name": "rating",
          "type": "uint256"
        }
      ],
      "stateMutability": "view",
      "type": "function"
    },
    {
      "inputs": [
        {
          "internalType": "bytes32",
          "name": "role",
          "type": "bytes32"
        }
      ],
      "name": "getRoleAdmin",
      "outputs": [
        {
          "internalType": "bytes32",
          "name": "",
          "type": "bytes32"
        }
      ],
      "stateMutability": "view",
      "type": "function"
    },
    {
      "inputs": [
        {
          "internalType": "address",
          "name": "account",
          "type": "address"
        }
      ],
      "name": "grantInstructorRole",
      "outputs": [],
      "stateMutability": "nonpayable",
      "type": "function"
    },
    {
      "inputs": [
        {
          "internalType": "bytes32",
          "name": "role",
          "type": "bytes32"
        },
        {
          "internalType": "address",
          "name": "account",
          "type": "address"
        }
      ],
      "name": "grantRole",
      "outputs": [],
      "stateMutability": "nonpayable",
      "type": "function"
    },
    {
      "inputs": [
        {
          "internalType": "bytes32",
          "name": "role",
          "type": "bytes32"
        },
        {
          "internalType": "address",
          "name": "account",
          "type": "address"
        }
      ],
      "name": "hasRole",
      "outputs": [
        {
          "internalType": "bool",
          "name": "",
          "type": "bool"
        }
      ],
      "stateMutability": "view",
      "type": "function"
    },
    {
      "inputs": [
        {
          "internalType": "bytes32",
          "name": "role",
          "type": "bytes32"
        },
        {
          "internalType": "address",
          "name": "callerConfirmation",
          "type": "address"
        }
      ],
      "name": "renounceRole",
      "outputs": [],
      "stateMutability": "nonpayable",
      "type": "function"
    },
    {
      "inputs": [
        {
          "internalType": "address",
          "name": "account",
          "type": "address"
        }
      ],
      "name": "revokeInstructorRole",
      "outputs": [],
      "stateMutability": "nonpayable",
      "type": "function"
    },
    {
      "inputs": [
        {
          "internalType": "bytes32",
          "name": "role",
          "type": "bytes32"
        },
        {
          "internalType": "address",
          "name": "account",
          "type": "address"
        }
      ],
      "name": "revokeRole",
      "outputs": [],
      "stateMutability": "nonpayable",
      "type": "function"
    },
    {
      "inputs": [
        {
          "internalType": "bytes4",
          "name": "interfaceId",
          "type": "bytes4"
        }
      ],
      "name": "supportsInterface",
      "outputs": [
        {
          "internalType": "bool",
          "name": "",
          "type": "bool"
        }
      ],
      "stateMutability": "view",
      "type": "function"
    }
  ],
  "bytecode": "0x6080604052600060025534801561001557600080fd5b506100296000801b3361002f60201b60201c565b5061019e565b6000610041838361012c60201b60201c565b61012157600160008085815260200190815260200160002060000160008473ffffffffffffffffffffffffffffffffffffffff1673ffffffffffffffffffffffffffffffffffffffff16815260200190815260200160002060006101000a81548160ff0219169083151502179055506100be61019660201b60201c565b73ffffffffffffffffffffffffffffffffffffffff168273ffffffffffffffffffffffffffffffffffffffff16847f2f8788117e7eff1d82e926ec794901d17c78024a50270940304540a733656f0d60405160405180910390a460019050610126565b600090505b92915050565b600080600084815260200190815260200160002060000160008373ffffffffffffffffffffffffffffffffffffffff1673ffffffffffffffffffffffffffffffffffffffff16815260200190815260200160002060009054906101000a900460ff16905092915050565b600033905090565b61185a806101ad6000396000f3fe608060405234801561001057600080fd5b50600436106100f55760003560e01c806375b238fc1161009757806396f979d21161006657806396f979d21461028a578063a217fddf146102c0578063c6472905146102de578063d547741f146102fa576100f5565b806375b238fc1461020257806386f8e92c146102205780638bcf979c1461023c57806391d148541461025a576100f5565b80632f2ff15d116100d35780632f2ff15d1461019057806336568abe146101ac5780635f1d514e146101c857806366055159146101e4576100f5565b806301ffc9a7146100fa5780630b91e28d1461012a578063248a9ca314610160575b600080fd5b610114600480360381019061010f9190610edf565b610316565b6040516101219190610f27565b60405180910390f35b610144600480360381019061013f9190610f78565b610390565b6040516101579796959493929190611085565b60405180910390f35b61017a6004803603810190610175919061113f565b610675565b604051610187919061117b565b60405180910390f35b6101aa60048036038101906101a591906111c2565b610694565b005b6101c660048036038101906101c191906111c2565b6106b6565b005b6101e260048036038101906101dd9190611202565b610731565b005b6101ec61076c565b6040516101f9919061122f565b60405180910390f35b61020a610772565b604051610217919061117b565b60405180910390f35b61023a60048036038101906102359190611202565b610779565b005b6102446107b4565b604051610251919061117b565b60405180910390f35b610274600480360381019061026f91906111c2565b6107d8565b6040516102819190610f27565b60405180910390f35b6102a4600480360381019061029f9190610f78565b610842565b6040516102b79796959493929190611085565b60405180910390f35b6102c8610a3c565b6040516102d5919061117b565b60405180910390f35b6102f860048036038101906102f3919061137f565b610a43565b005b610314600480360381019061030f91906111c2565b610b97565b005b60007f7965db0b000000000000000000000000000000000000000000000000000000007bffffffffffffffffffffffffffffffffffffffffffffffffffffffff1916827bffffffffffffffffffffffffffffffffffffffffffffffffffffffff19161480610389575061038882610bb9565b5b9050919050565b60006060806000806060600080881180156103ad57506002548811155b6103ec576040517f08c379a00000000000000000000000000000000000000000000000000000000081526004016103e390611486565b60405180910390fd5b6000600160008a81526020019081526020016000206040518060e001604052908160008201548152602001600182018054610426906114d5565b80601f0160208091040260200160405190810160405280929190818152602001828054610452906114d5565b801561049f5780601f106104745761010080835404028352916020019161049f565b820191906000526020600020905b81548152906001019060200180831161048257829003601f168201915b505050505081526020016002820180546104b8906114d5565b80601f01602080910402602001604051908101604052809291908181526020018280546104e4906114d5565b80156105315780601f1061050657610100808354040283529160200191610531565b820191906000526020600020905b81548152906001019060200180831161051457829003601f168201915b50505050508152602001600382015481526020016004820160009054906101000a900473ffffffffffffffffffffffffffffffffffffffff1673ffffffffffffffffffffffffffffffffffffffff1673ffffffffffffffffffffffffffffffffffffffff1681526020016005820180546105aa906114d5565b80601f01602080910402602001604051908101604052809291908181526020018280546105d6906114d5565b80156106235780601f106105f857610100808354040283529160200191610623565b820191906000526020600020905b81548152906001019060200180831161060657829003601f168201915b505050505081526020016006820154815250509050806000015181602001518260400151836060015184608001518560a001518660c00151975097509750975097509750975050919395979092949650565b6000806000838152602001908152602001600020600101549050919050565b61069d82610675565b6106a681610c23565b6106b08383610c37565b50505050565b6106be610d28565b73ffffffffffffffffffffffffffffffffffffffff168173ffffffffffffffffffffffffffffffffffffffff1614610722576040517f6697b23200000000000000000000000000000000000000000000000000000000815260040160405180910390fd5b61072c8282610d30565b505050565b6000801b61073e81610c23565b6107687fae4a0595970935aa5495afbbb72e5f1f6ff1062766b4a3028c0c9b7d5cf7e34583610694565b5050565b60025481565b6000801b81565b6000801b61078681610c23565b6107b07fae4a0595970935aa5495afbbb72e5f1f6ff1062766b4a3028c0c9b7d5cf7e34583610b97565b5050565b7fae4a0595970935aa5495afbbb72e5f1f6ff1062766b4a3028c0c9b7d5cf7e34581565b600080600084815260200190815260200160002060000160008373ffffffffffffffffffffffffffffffffffffffff1673ffffffffffffffffffffffffffffffffffffffff16815260200190815260200160002060009054906101000a900460ff16905092915050565b600160205280600052604060002060009150905080600001549080600101805461086b906114d5565b80601f0160208091040260200160405190810160405280929190818152602001828054610897906114d5565b80156108e45780601f106108b9576101008083540402835291602001916108e4565b820191906000526020600020905b8154815290600101906020018083116108c757829003601f168201915b5050505050908060020180546108f9906114d5565b80601f0160208091040260200160405190810160405280929190818152602001828054610925906114d5565b80156109725780601f1061094757610100808354040283529160200191610972565b820191906000526020600020905b81548152906001019060200180831161095557829003601f168201915b5050505050908060030154908060040160009054906101000a900473ffffffffffffffffffffffffffffffffffffffff16908060050180546109b3906114d5565b80601f01602080910402602001604051908101604052809291908181526020018280546109df906114d5565b8015610a2c5780601f10610a0157610100808354040283529160200191610a2c565b820191906000526020600020905b815481529060010190602001808311610a0f57829003601f168201915b5050505050908060060154905087565b6000801b81565b7fae4a0595970935aa5495afbbb72e5f1f6ff1062766b4a3028c0c9b7d5cf7e345610a6d81610c23565b60026000815480929190610a8090611535565b91905055506040518060e0016040528060025481526020018681526020018581526020018481526020013373ffffffffffffffffffffffffffffffffffffffff1681526020018381526020016000815250600160006002548152602001908152602001600020600082015181600001556020820151816001019081610b059190611729565b506040820151816002019081610b1b9190611729565b506060820151816003015560808201518160040160006101000a81548173ffffffffffffffffffffffffffffffffffffffff021916908373ffffffffffffffffffffffffffffffffffffffff16021790555060a0820151816005019081610b829190611729565b5060c082015181600601559050505050505050565b610ba082610675565b610ba981610c23565b610bb38383610d30565b50505050565b60007f01ffc9a7000000000000000000000000000000000000000000000000000000007bffffffffffffffffffffffffffffffffffffffffffffffffffffffff1916827bffffffffffffffffffffffffffffffffffffffffffffffffffffffff1916149050919050565b610c3481610c2f610d28565b610e22565b50565b6000610c4383836107d8565b610d1d57600160008085815260200190815260200160002060000160008473ffffffffffffffffffffffffffffffffffffffff1673ffffffffffffffffffffffffffffffffffffffff16815260200190815260200160002060006101000a81548160ff021916908315150217905550610cba610d28565b73ffffffffffffffffffffffffffffffffffffffff168273ffffffffffffffffffffffffffffffffffffffff16847f2f8788117e7eff1d82e926ec794901d17c78024a50270940304540a733656f0d60405160405180910390a460019050610d22565b600090505b92915050565b600033905090565b6000610d3c83836107d8565b15610e1757600080600085815260200190815260200160002060000160008473ffffffffffffffffffffffffffffffffffffffff1673ffffffffffffffffffffffffffffffffffffffff16815260200190815260200160002060006101000a81548160ff021916908315150217905550610db4610d28565b73ffffffffffffffffffffffffffffffffffffffff168273ffffffffffffffffffffffffffffffffffffffff16847ff6391f5c32d9c69d2a47ea670b442974b53935d1edc7fd64eb21e047a839171b60405160405180910390a460019050610e1c565b600090505b92915050565b610e2c82826107d8565b610e6f5780826040517fe2517d3f000000000000000000000000000000000000000000000000000000008152600401610e669291906117fb565b60405180910390fd5b5050565b6000604051905090565b600080fd5b600080fd5b60007fffffffff0000000000000000000000000000000000000000000000000000000082169050919050565b610ebc81610e87565b8114610ec757600080fd5b50565b600081359050610ed981610eb3565b92915050565b600060208284031215610ef557610ef4610e7d565b5b6000610f0384828501610eca565b91505092915050565b60008115159050919050565b610f2181610f0c565b82525050565b6000602082019050610f3c6000830184610f18565b92915050565b6000819050919050565b610f5581610f42565b8114610f6057600080fd5b50565b600081359050610f7281610f4c565b92915050565b600060208284031215610f8e57610f8d610e7d565b5b6000610f9c84828501610f63565b91505092915050565b610fae81610f42565b82525050565b600081519050919050565b600082825260208201905092915050565b60005b83811015610fee578082015181840152602081019050610fd3565b60008484015250505050565b6000601f19601f8301169050919050565b600061101682610fb4565b6110208185610fbf565b9350611030818560208601610fd0565b61103981610ffa565b840191505092915050565b600073ffffffffffffffffffffffffffffffffffffffff82169050919050565b600061106f82611044565b9050919050565b61107f81611064565b82525050565b600060e08201905061109a600083018a610fa5565b81810360208301526110ac818961100b565b905081810360408301526110c0818861100b565b90506110cf6060830187610fa5565b6110dc6080830186611076565b81810360a08301526110ee818561100b565b90506110fd60c0830184610fa5565b98975050505050505050565b6000819050919050565b61111c81611109565b811461112757600080fd5b50565b60008135905061113981611113565b92915050565b60006020828403121561115557611154610e7d565b5b60006111638482850161112a565b91505092915050565b61117581611109565b82525050565b6000602082019050611190600083018461116c565b92915050565b61119f81611064565b81146111aa57600080fd5b50565b6000813590506111bc81611196565b92915050565b600080604083850312156111d9576111d8610e7d565b5b60006111e78582860161112a565b92505060206111f8858286016111ad565b9150509250929050565b60006020828403121561121857611217610e7d565b5b6000611226848285016111ad565b91505092915050565b60006020820190506112446000830184610fa5565b92915050565b600080fd5b600080fd5b7f4e487b7100000000000000000000000000000000000000000000000000000000600052604160045260246000fd5b61128c82610ffa565b810181811067ffffffffffffffff821117156112ab576112aa611254565b5b80604052505050565b60006112be610e73565b90506112ca8282611283565b919050565b600067ffffffffffffffff8211156112ea576112e9611254565b5b6112f382610ffa565b9050602081019050919050565b82818337600083830152505050565b600061132261131d846112cf565b6112b4565b90508281526020810184848401111561133e5761133d61124f565b5b611349848285611300565b509392505050565b600082601f8301126113665761136561124a565b5b813561137684826020860161130f565b91505092915050565b6000806000806080858703121561139957611398610e7d565b5b600085013567ffffffffffffffff8111156113b7576113b6610e82565b5b6113c387828801611351565b945050602085013567ffffffffffffffff8111156113e4576113e3610e82565b5b6113f087828801611351565b935050604061140187828801610f63565b925050606085013567ffffffffffffffff81111561142257611421610e82565b5b61142e87828801611351565b91505092959194509250565b7f436f7572736520646f6573206e6f742065786973740000000000000000000000600082015250565b6000611470601583610fbf565b915061147b8261143a565b602082019050919050565b6000602082019050818103600083015261149f81611463565b9050919050565b7f4e487b7100000000000000000000000000000000000000000000000000000000600052602260045260246000fd5b600060028204905060018216806114ed57607f821691505b602082108103611500576114ff6114a6565b5b50919050565b7f4e487b7100000000000000000000000000000000000000000000000000000000600052601160045260246000fd5b600061154082610f42565b91507fffffffffffffffffffffffffffffffffffffffffffffffffffffffffffffffff820361157257611571611506565b5b600182019050919050565b60008190508160005260206000209050919050565b60006020601f8301049050919050565b600082821b905092915050565b6000600883026115df7fffffffffffffffffffffffffffffffffffffffffffffffffffffffffffffffff826115a2565b6115e986836115a2565b95508019841693508086168417925050509392505050565b6000819050919050565b600061162661162161161c84610f42565b611601565b610f42565b9050919050565b6000819050919050565b6116408361160b565b61165461164c8261162d565b8484546115af565b825550505050565b600090565b61166961165c565b611674818484611637565b505050565b5b818110156116985761168d600082611661565b60018101905061167a565b5050565b601f8211156116dd576116ae8161157d565b6116b784611592565b810160208510156116c6578190505b6116da6116d285611592565b830182611679565b50505b505050565b600082821c905092915050565b6000611700600019846008026116e2565b1980831691505092915050565b600061171983836116ef565b9150826002028217905092915050565b61173282610fb4565b67ffffffffffffffff81111561174b5761174a611254565b5b61175582546114d5565b61176082828561169c565b600060209050601f8311600181146117935760008415611781578287015190505b61178b858261170d565b8655506117f3565b601f1984166117a18661157d565b60005b828110156117c9578489015182556001820191506020850194506020810190506117a4565b868310156117e657848901516117e2601f8916826116ef565b8355505b6001600288020188555050505b505050505050565b60006040820190506118106000830185611076565b61181d602083018461116c565b939250505056fea2646970667358221220a392faf921c5d13e598101237dabaa2a23ee00270d9d432764c5a1d676f60f7b64736f6c634300081b0033",
  "linkReferences": {},
  "deployedLinkReferences": {}
}