{
  "_format": "hh-sol-artifact-1",
  "contractName": "CourseContract",
  "sourceName": "contracts/CourseContract.sol",
  "abi": [
    {
      "inputs": [],
      "stateMutability": "nonpayable",
      "type": "constructor"
    },
    {
      "inputs": [],
      "name": "AccessControlBadConfirmation",
      "type": "error"
    },
    {
      "inputs": [
        {
          "internalType": "address",
          "name": "account",
          "type": "address"
        },
        {
          "internalType": "bytes32",
          "name": "neededRole",
          "type": "bytes32"
        }
      ],
      "name": "AccessControlUnauthorizedAccount",
      "type": "error"
    },
    {
      "anonymous": false,
      "inputs": [
        {
          "indexed": true,
          "internalType": "bytes32",
          "name": "role",
          "type": "bytes32"
        },
        {
          "indexed": true,
          "internalType": "bytes32",
          "name": "previousAdminRole",
          "type": "bytes32"
        },
        {
          "indexed": true,
          "internalType": "bytes32",
          "name": "newAdminRole",
          "type": "bytes32"
        }
      ],
      "name": "RoleAdminChanged",
      "type": "event"
    },
    {
      "anonymous": false,
      "inputs": [
        {
          "indexed": true,
          "internalType": "bytes32",
          "name": "role",
          "type": "bytes32"
        },
        {
          "indexed": true,
          "internalType": "address",
          "name": "account",
          "type": "address"
        },
        {
          "indexed": true,
          "internalType": "address",
          "name": "sender",
          "type": "address"
        }
      ],
      "name": "RoleGranted",
      "type": "event"
    },
    {
      "anonymous": false,
      "inputs": [
        {
          "indexed": true,
          "internalType": "bytes32",
          "name": "role",
          "type": "bytes32"
        },
        {
          "indexed": true,
          "internalType": "address",
          "name": "account",
          "type": "address"
        },
        {
          "indexed": true,
          "internalType": "address",
          "name": "sender",
          "type": "address"
        }
      ],
      "name": "RoleRevoked",
      "type": "event"
    },
    {
      "inputs": [],
      "name": "ADMIN_ROLE",
      "outputs": [
        {
          "internalType": "bytes32",
          "name": "",
          "type": "bytes32"
        }
      ],
      "stateMutability": "view",
      "type": "function"
    },
    {
      "inputs": [],
      "name": "DEFAULT_ADMIN_ROLE",
      "outputs": [
        {
          "internalType": "bytes32",
          "name": "",
          "type": "bytes32"
        }
      ],
      "stateMutability": "view",
      "type": "function"
    },
    {
      "inputs": [],
      "name": "INSTRUCTOR_ROLE",
      "outputs": [
        {
          "internalType": "bytes32",
          "name": "",
          "type": "bytes32"
        }
      ],
      "stateMutability": "view",
      "type": "function"
    },
    {
      "inputs": [
        {
          "internalType": "string",
          "name": "_name",
          "type": "string"
        }
      ],
      "name": "addCourse",
      "outputs": [],
      "stateMutability": "nonpayable",
      "type": "function"
    },
    {
      "inputs": [],
      "name": "courseCount",
      "outputs": [
        {
          "internalType": "uint256",
          "name": "",
          "type": "uint256"
        }
      ],
      "stateMutability": "view",
      "type": "function"
    },
    {
      "inputs": [
        {
          "internalType": "uint256",
          "name": "",
          "type": "uint256"
        }
      ],
      "name": "courses",
      "outputs": [
        {
          "internalType": "uint256",
          "name": "id",
          "type": "uint256"
        },
        {
          "internalType": "string",
          "name": "name",
          "type": "string"
        },
        {
          "internalType": "address",
          "name": "instructor",
          "type": "address"
        }
      ],
      "stateMutability": "view",
      "type": "function"
    },
    {
      "inputs": [
        {
          "internalType": "uint256",
          "name": "_courseId",
          "type": "uint256"
        }
      ],
      "name": "getCourse",
      "outputs": [
        {
          "internalType": "string",
          "name": "",
          "type": "string"
        },
        {
          "internalType": "address",
          "name": "",
          "type": "address"
        }
      ],
      "stateMutability": "view",
      "type": "function"
    },
    {
      "inputs": [
        {
          "internalType": "bytes32",
          "name": "role",
          "type": "bytes32"
        }
      ],
      "name": "getRoleAdmin",
      "outputs": [
        {
          "internalType": "bytes32",
          "name": "",
          "type": "bytes32"
        }
      ],
      "stateMutability": "view",
      "type": "function"
    },
    {
      "inputs": [
        {
          "internalType": "address",
          "name": "account",
          "type": "address"
        }
      ],
      "name": "grantInstructorRole",
      "outputs": [],
      "stateMutability": "nonpayable",
      "type": "function"
    },
    {
      "inputs": [
        {
          "internalType": "bytes32",
          "name": "role",
          "type": "bytes32"
        },
        {
          "internalType": "address",
          "name": "account",
          "type": "address"
        }
      ],
      "name": "grantRole",
      "outputs": [],
      "stateMutability": "nonpayable",
      "type": "function"
    },
    {
      "inputs": [
        {
          "internalType": "bytes32",
          "name": "role",
          "type": "bytes32"
        },
        {
          "internalType": "address",
          "name": "account",
          "type": "address"
        }
      ],
      "name": "hasRole",
      "outputs": [
        {
          "internalType": "bool",
          "name": "",
          "type": "bool"
        }
      ],
      "stateMutability": "view",
      "type": "function"
    },
    {
      "inputs": [
        {
          "internalType": "bytes32",
          "name": "role",
          "type": "bytes32"
        },
        {
          "internalType": "address",
          "name": "callerConfirmation",
          "type": "address"
        }
      ],
      "name": "renounceRole",
      "outputs": [],
      "stateMutability": "nonpayable",
      "type": "function"
    },
    {
      "inputs": [
        {
          "internalType": "address",
          "name": "account",
          "type": "address"
        }
      ],
      "name": "revokeInstructorRole",
      "outputs": [],
      "stateMutability": "nonpayable",
      "type": "function"
    },
    {
      "inputs": [
        {
          "internalType": "bytes32",
          "name": "role",
          "type": "bytes32"
        },
        {
          "internalType": "address",
          "name": "account",
          "type": "address"
        }
      ],
      "name": "revokeRole",
      "outputs": [],
      "stateMutability": "nonpayable",
      "type": "function"
    },
    {
      "inputs": [
        {
          "internalType": "bytes4",
          "name": "interfaceId",
          "type": "bytes4"
        }
      ],
      "name": "supportsInterface",
      "outputs": [
        {
          "internalType": "bool",
          "name": "",
          "type": "bool"
        }
      ],
      "stateMutability": "view",
      "type": "function"
    }
  ],
  "bytecode": "0x6080604052600060025534801561001557600080fd5b506100296000801b3361002f60201b60201c565b5061019e565b6000610041838361012c60201b60201c565b61012157600160008085815260200190815260200160002060000160008473ffffffffffffffffffffffffffffffffffffffff1673ffffffffffffffffffffffffffffffffffffffff16815260200190815260200160002060006101000a81548160ff0219169083151502179055506100be61019660201b60201c565b73ffffffffffffffffffffffffffffffffffffffff168273ffffffffffffffffffffffffffffffffffffffff16847f2f8788117e7eff1d82e926ec794901d17c78024a50270940304540a733656f0d60405160405180910390a460019050610126565b600090505b92915050565b600080600084815260200190815260200160002060000160008373ffffffffffffffffffffffffffffffffffffffff1673ffffffffffffffffffffffffffffffffffffffff16815260200190815260200160002060009054906101000a900460ff16905092915050565b600033905090565b6114dc806101ad6000396000f3fe608060405234801561001057600080fd5b50600436106100f55760003560e01c8063660551591161009757806391d148541161006657806391d148541461027157806396f979d2146102a1578063a217fddf146102d3578063d547741f146102f1576100f5565b806366055159146101fb57806375b238fc1461021957806386f8e92c146102375780638bcf979c14610253576100f5565b80632e554076116100d35780632e5540761461018b5780632f2ff15d146101a757806336568abe146101c35780635f1d514e146101df576100f5565b806301ffc9a7146100fa5780630b91e28d1461012a578063248a9ca31461015b575b600080fd5b610114600480360381019061010f9190610be9565b61030d565b6040516101219190610c31565b60405180910390f35b610144600480360381019061013f9190610c82565b610387565b604051610152929190610d80565b60405180910390f35b61017560048036038101906101709190610de6565b610503565b6040516101829190610e22565b60405180910390f35b6101a560048036038101906101a09190610f72565b610522565b005b6101c160048036038101906101bc9190610fe7565b61061a565b005b6101dd60048036038101906101d89190610fe7565b61063c565b005b6101f960048036038101906101f49190611027565b6106b7565b005b6102036106f2565b6040516102109190611063565b60405180910390f35b6102216106f8565b60405161022e9190610e22565b60405180910390f35b610251600480360381019061024c9190611027565b6106ff565b005b61025b61073a565b6040516102689190610e22565b60405180910390f35b61028b60048036038101906102869190610fe7565b61075e565b6040516102989190610c31565b60405180910390f35b6102bb60048036038101906102b69190610c82565b6107c8565b6040516102ca9392919061107e565b60405180910390f35b6102db61089a565b6040516102e89190610e22565b60405180910390f35b61030b60048036038101906103069190610fe7565b6108a1565b005b60007f7965db0b000000000000000000000000000000000000000000000000000000007bffffffffffffffffffffffffffffffffffffffffffffffffffffffff1916827bffffffffffffffffffffffffffffffffffffffffffffffffffffffff19161480610380575061037f826108c3565b5b9050919050565b60606000808311801561039c57506002548311155b6103db576040517f08c379a00000000000000000000000000000000000000000000000000000000081526004016103d290611108565b60405180910390fd5b6000600160008581526020019081526020016000206040518060600160405290816000820154815260200160018201805461041590611157565b80601f016020809104026020016040519081016040528092919081815260200182805461044190611157565b801561048e5780601f106104635761010080835404028352916020019161048e565b820191906000526020600020905b81548152906001019060200180831161047157829003601f168201915b505050505081526020016002820160009054906101000a900473ffffffffffffffffffffffffffffffffffffffff1673ffffffffffffffffffffffffffffffffffffffff1673ffffffffffffffffffffffffffffffffffffffff16815250509050806020015181604001519250925050915091565b6000806000838152602001908152602001600020600101549050919050565b7fae4a0595970935aa5495afbbb72e5f1f6ff1062766b4a3028c0c9b7d5cf7e34561054c8161092d565b6002600081548092919061055f906111b7565b9190505550604051806060016040528060025481526020018381526020013373ffffffffffffffffffffffffffffffffffffffff168152506001600060025481526020019081526020016000206000820151816000015560208201518160010190816105cb91906113ab565b5060408201518160020160006101000a81548173ffffffffffffffffffffffffffffffffffffffff021916908373ffffffffffffffffffffffffffffffffffffffff1602179055509050505050565b61062382610503565b61062c8161092d565b6106368383610941565b50505050565b610644610a32565b73ffffffffffffffffffffffffffffffffffffffff168173ffffffffffffffffffffffffffffffffffffffff16146106a8576040517f6697b23200000000000000000000000000000000000000000000000000000000815260040160405180910390fd5b6106b28282610a3a565b505050565b6000801b6106c48161092d565b6106ee7fae4a0595970935aa5495afbbb72e5f1f6ff1062766b4a3028c0c9b7d5cf7e3458361061a565b5050565b60025481565b6000801b81565b6000801b61070c8161092d565b6107367fae4a0595970935aa5495afbbb72e5f1f6ff1062766b4a3028c0c9b7d5cf7e345836108a1565b5050565b7fae4a0595970935aa5495afbbb72e5f1f6ff1062766b4a3028c0c9b7d5cf7e34581565b600080600084815260200190815260200160002060000160008373ffffffffffffffffffffffffffffffffffffffff1673ffffffffffffffffffffffffffffffffffffffff16815260200190815260200160002060009054906101000a900460ff16905092915050565b60016020528060005260406000206000915090508060000154908060010180546107f190611157565b80601f016020809104026020016040519081016040528092919081815260200182805461081d90611157565b801561086a5780601f1061083f5761010080835404028352916020019161086a565b820191906000526020600020905b81548152906001019060200180831161084d57829003601f168201915b5050505050908060020160009054906101000a900473ffffffffffffffffffffffffffffffffffffffff16905083565b6000801b81565b6108aa82610503565b6108b38161092d565b6108bd8383610a3a565b50505050565b60007f01ffc9a7000000000000000000000000000000000000000000000000000000007bffffffffffffffffffffffffffffffffffffffffffffffffffffffff1916827bffffffffffffffffffffffffffffffffffffffffffffffffffffffff1916149050919050565b61093e81610939610a32565b610b2c565b50565b600061094d838361075e565b610a2757600160008085815260200190815260200160002060000160008473ffffffffffffffffffffffffffffffffffffffff1673ffffffffffffffffffffffffffffffffffffffff16815260200190815260200160002060006101000a81548160ff0219169083151502179055506109c4610a32565b73ffffffffffffffffffffffffffffffffffffffff168273ffffffffffffffffffffffffffffffffffffffff16847f2f8788117e7eff1d82e926ec794901d17c78024a50270940304540a733656f0d60405160405180910390a460019050610a2c565b600090505b92915050565b600033905090565b6000610a46838361075e565b15610b2157600080600085815260200190815260200160002060000160008473ffffffffffffffffffffffffffffffffffffffff1673ffffffffffffffffffffffffffffffffffffffff16815260200190815260200160002060006101000a81548160ff021916908315150217905550610abe610a32565b73ffffffffffffffffffffffffffffffffffffffff168273ffffffffffffffffffffffffffffffffffffffff16847ff6391f5c32d9c69d2a47ea670b442974b53935d1edc7fd64eb21e047a839171b60405160405180910390a460019050610b26565b600090505b92915050565b610b36828261075e565b610b795780826040517fe2517d3f000000000000000000000000000000000000000000000000000000008152600401610b7092919061147d565b60405180910390fd5b5050565b6000604051905090565b600080fd5b600080fd5b60007fffffffff0000000000000000000000000000000000000000000000000000000082169050919050565b610bc681610b91565b8114610bd157600080fd5b50565b600081359050610be381610bbd565b92915050565b600060208284031215610bff57610bfe610b87565b5b6000610c0d84828501610bd4565b91505092915050565b60008115159050919050565b610c2b81610c16565b82525050565b6000602082019050610c466000830184610c22565b92915050565b6000819050919050565b610c5f81610c4c565b8114610c6a57600080fd5b50565b600081359050610c7c81610c56565b92915050565b600060208284031215610c9857610c97610b87565b5b6000610ca684828501610c6d565b91505092915050565b600081519050919050565b600082825260208201905092915050565b60005b83811015610ce9578082015181840152602081019050610cce565b60008484015250505050565b6000601f19601f8301169050919050565b6000610d1182610caf565b610d1b8185610cba565b9350610d2b818560208601610ccb565b610d3481610cf5565b840191505092915050565b600073ffffffffffffffffffffffffffffffffffffffff82169050919050565b6000610d6a82610d3f565b9050919050565b610d7a81610d5f565b82525050565b60006040820190508181036000830152610d9a8185610d06565b9050610da96020830184610d71565b9392505050565b6000819050919050565b610dc381610db0565b8114610dce57600080fd5b50565b600081359050610de081610dba565b92915050565b600060208284031215610dfc57610dfb610b87565b5b6000610e0a84828501610dd1565b91505092915050565b610e1c81610db0565b82525050565b6000602082019050610e376000830184610e13565b92915050565b600080fd5b600080fd5b7f4e487b7100000000000000000000000000000000000000000000000000000000600052604160045260246000fd5b610e7f82610cf5565b810181811067ffffffffffffffff82111715610e9e57610e9d610e47565b5b80604052505050565b6000610eb1610b7d565b9050610ebd8282610e76565b919050565b600067ffffffffffffffff821115610edd57610edc610e47565b5b610ee682610cf5565b9050602081019050919050565b82818337600083830152505050565b6000610f15610f1084610ec2565b610ea7565b905082815260208101848484011115610f3157610f30610e42565b5b610f3c848285610ef3565b509392505050565b600082601f830112610f5957610f58610e3d565b5b8135610f69848260208601610f02565b91505092915050565b600060208284031215610f8857610f87610b87565b5b600082013567ffffffffffffffff811115610fa657610fa5610b8c565b5b610fb284828501610f44565b91505092915050565b610fc481610d5f565b8114610fcf57600080fd5b50565b600081359050610fe181610fbb565b92915050565b60008060408385031215610ffe57610ffd610b87565b5b600061100c85828601610dd1565b925050602061101d85828601610fd2565b9150509250929050565b60006020828403121561103d5761103c610b87565b5b600061104b84828501610fd2565b91505092915050565b61105d81610c4c565b82525050565b60006020820190506110786000830184611054565b92915050565b60006060820190506110936000830186611054565b81810360208301526110a58185610d06565b90506110b46040830184610d71565b949350505050565b7f436f7572736520646f6573206e6f742065786973740000000000000000000000600082015250565b60006110f2601583610cba565b91506110fd826110bc565b602082019050919050565b60006020820190508181036000830152611121816110e5565b9050919050565b7f4e487b7100000000000000000000000000000000000000000000000000000000600052602260045260246000fd5b6000600282049050600182168061116f57607f821691505b60208210810361118257611181611128565b5b50919050565b7f4e487b7100000000000000000000000000000000000000000000000000000000600052601160045260246000fd5b60006111c282610c4c565b91507fffffffffffffffffffffffffffffffffffffffffffffffffffffffffffffffff82036111f4576111f3611188565b5b600182019050919050565b60008190508160005260206000209050919050565b60006020601f8301049050919050565b600082821b905092915050565b6000600883026112617fffffffffffffffffffffffffffffffffffffffffffffffffffffffffffffffff82611224565b61126b8683611224565b95508019841693508086168417925050509392505050565b6000819050919050565b60006112a86112a361129e84610c4c565b611283565b610c4c565b9050919050565b6000819050919050565b6112c28361128d565b6112d66112ce826112af565b848454611231565b825550505050565b600090565b6112eb6112de565b6112f68184846112b9565b505050565b5b8181101561131a5761130f6000826112e3565b6001810190506112fc565b5050565b601f82111561135f57611330816111ff565b61133984611214565b81016020851015611348578190505b61135c61135485611214565b8301826112fb565b50505b505050565b600082821c905092915050565b600061138260001984600802611364565b1980831691505092915050565b600061139b8383611371565b9150826002028217905092915050565b6113b482610caf565b67ffffffffffffffff8111156113cd576113cc610e47565b5b6113d78254611157565b6113e282828561131e565b600060209050601f8311600181146114155760008415611403578287015190505b61140d858261138f565b865550611475565b601f198416611423866111ff565b60005b8281101561144b57848901518255600182019150602085019450602081019050611426565b868310156114685784890151611464601f891682611371565b8355505b6001600288020188555050505b505050505050565b60006040820190506114926000830185610d71565b61149f6020830184610e13565b939250505056fea26469706673582212202127225a0d9e89c4f88a04d84780c812512313aa139de57d28a438b4f7ae623c64736f6c634300081b0033",
  "linkReferences": {},
  "deployedLinkReferences": {}
}