{
  "_format": "hh-sol-artifact-1",
  "contractName": "CourseContract",
  "sourceName": "contracts/CourseContract.sol",
  "abi": [
    {
      "inputs": [],
      "stateMutability": "nonpayable",
      "type": "constructor"
    },
    {
      "inputs": [],
      "name": "AccessControlBadConfirmation",
      "type": "error"
    },
    {
      "inputs": [
        {
          "internalType": "address",
          "name": "account",
          "type": "address"
        },
        {
          "internalType": "bytes32",
          "name": "neededRole",
          "type": "bytes32"
        }
      ],
      "name": "AccessControlUnauthorizedAccount",
      "type": "error"
    },
    {
      "anonymous": false,
      "inputs": [
        {
          "indexed": true,
          "internalType": "bytes32",
          "name": "role",
          "type": "bytes32"
        },
        {
          "indexed": true,
          "internalType": "bytes32",
          "name": "previousAdminRole",
          "type": "bytes32"
        },
        {
          "indexed": true,
          "internalType": "bytes32",
          "name": "newAdminRole",
          "type": "bytes32"
        }
      ],
      "name": "RoleAdminChanged",
      "type": "event"
    },
    {
      "anonymous": false,
      "inputs": [
        {
          "indexed": true,
          "internalType": "bytes32",
          "name": "role",
          "type": "bytes32"
        },
        {
          "indexed": true,
          "internalType": "address",
          "name": "account",
          "type": "address"
        },
        {
          "indexed": true,
          "internalType": "address",
          "name": "sender",
          "type": "address"
        }
      ],
      "name": "RoleGranted",
      "type": "event"
    },
    {
      "anonymous": false,
      "inputs": [
        {
          "indexed": true,
          "internalType": "bytes32",
          "name": "role",
          "type": "bytes32"
        },
        {
          "indexed": true,
          "internalType": "address",
          "name": "account",
          "type": "address"
        },
        {
          "indexed": true,
          "internalType": "address",
          "name": "sender",
          "type": "address"
        }
      ],
      "name": "RoleRevoked",
      "type": "event"
    },
    {
      "inputs": [],
      "name": "ADMIN_ROLE",
      "outputs": [
        {
          "internalType": "bytes32",
          "name": "",
          "type": "bytes32"
        }
      ],
      "stateMutability": "view",
      "type": "function"
    },
    {
      "inputs": [],
      "name": "DEFAULT_ADMIN_ROLE",
      "outputs": [
        {
          "internalType": "bytes32",
          "name": "",
          "type": "bytes32"
        }
      ],
      "stateMutability": "view",
      "type": "function"
    },
    {
      "inputs": [],
      "name": "INSTRUCTOR_ROLE",
      "outputs": [
        {
          "internalType": "bytes32",
          "name": "",
          "type": "bytes32"
        }
      ],
      "stateMutability": "view",
      "type": "function"
    },
    {
      "inputs": [
        {
          "internalType": "string",
          "name": "_name",
          "type": "string"
        }
      ],
      "name": "addCourse",
      "outputs": [],
      "stateMutability": "nonpayable",
      "type": "function"
    },
    {
      "inputs": [],
      "name": "courseCount",
      "outputs": [
        {
          "internalType": "uint256",
          "name": "",
          "type": "uint256"
        }
      ],
      "stateMutability": "view",
      "type": "function"
    },
    {
      "inputs": [
        {
          "internalType": "uint256",
          "name": "",
          "type": "uint256"
        }
      ],
      "name": "courses",
      "outputs": [
        {
          "internalType": "uint256",
          "name": "id",
          "type": "uint256"
        },
        {
          "internalType": "string",
          "name": "name",
          "type": "string"
        }
      ],
      "stateMutability": "view",
      "type": "function"
    },
    {
      "inputs": [
        {
          "internalType": "uint256",
          "name": "_courseId",
          "type": "uint256"
        }
      ],
      "name": "getCourse",
      "outputs": [
        {
          "internalType": "string",
          "name": "",
          "type": "string"
        }
      ],
      "stateMutability": "view",
      "type": "function"
    },
    {
      "inputs": [
        {
          "internalType": "bytes32",
          "name": "role",
          "type": "bytes32"
        }
      ],
      "name": "getRoleAdmin",
      "outputs": [
        {
          "internalType": "bytes32",
          "name": "",
          "type": "bytes32"
        }
      ],
      "stateMutability": "view",
      "type": "function"
    },
    {
      "inputs": [
        {
          "internalType": "address",
          "name": "account",
          "type": "address"
        }
      ],
      "name": "grantInstructorRole",
      "outputs": [],
      "stateMutability": "nonpayable",
      "type": "function"
    },
    {
      "inputs": [
        {
          "internalType": "bytes32",
          "name": "role",
          "type": "bytes32"
        },
        {
          "internalType": "address",
          "name": "account",
          "type": "address"
        }
      ],
      "name": "grantRole",
      "outputs": [],
      "stateMutability": "nonpayable",
      "type": "function"
    },
    {
      "inputs": [
        {
          "internalType": "bytes32",
          "name": "role",
          "type": "bytes32"
        },
        {
          "internalType": "address",
          "name": "account",
          "type": "address"
        }
      ],
      "name": "hasRole",
      "outputs": [
        {
          "internalType": "bool",
          "name": "",
          "type": "bool"
        }
      ],
      "stateMutability": "view",
      "type": "function"
    },
    {
      "inputs": [
        {
          "internalType": "bytes32",
          "name": "role",
          "type": "bytes32"
        },
        {
          "internalType": "address",
          "name": "callerConfirmation",
          "type": "address"
        }
      ],
      "name": "renounceRole",
      "outputs": [],
      "stateMutability": "nonpayable",
      "type": "function"
    },
    {
      "inputs": [
        {
          "internalType": "address",
          "name": "account",
          "type": "address"
        }
      ],
      "name": "revokeInstructorRole",
      "outputs": [],
      "stateMutability": "nonpayable",
      "type": "function"
    },
    {
      "inputs": [
        {
          "internalType": "bytes32",
          "name": "role",
          "type": "bytes32"
        },
        {
          "internalType": "address",
          "name": "account",
          "type": "address"
        }
      ],
      "name": "revokeRole",
      "outputs": [],
      "stateMutability": "nonpayable",
      "type": "function"
    },
    {
      "inputs": [
        {
          "internalType": "bytes4",
          "name": "interfaceId",
          "type": "bytes4"
        }
      ],
      "name": "supportsInterface",
      "outputs": [
        {
          "internalType": "bool",
          "name": "",
          "type": "bool"
        }
      ],
      "stateMutability": "view",
      "type": "function"
    }
  ],
  "bytecode": "0x6080604052600060025534801561001557600080fd5b506100296000801b3361002f60201b60201c565b5061019e565b6000610041838361012c60201b60201c565b61012157600160008085815260200190815260200160002060000160008473ffffffffffffffffffffffffffffffffffffffff1673ffffffffffffffffffffffffffffffffffffffff16815260200190815260200160002060006101000a81548160ff0219169083151502179055506100be61019660201b60201c565b73ffffffffffffffffffffffffffffffffffffffff168273ffffffffffffffffffffffffffffffffffffffff16847f2f8788117e7eff1d82e926ec794901d17c78024a50270940304540a733656f0d60405160405180910390a460019050610126565b600090505b92915050565b600080600084815260200190815260200160002060000160008373ffffffffffffffffffffffffffffffffffffffff1673ffffffffffffffffffffffffffffffffffffffff16815260200190815260200160002060009054906101000a900460ff16905092915050565b600033905090565b6113b2806101ad6000396000f3fe608060405234801561001057600080fd5b50600436106100f55760003560e01c8063660551591161009757806391d148541161006657806391d148541461027057806396f979d2146102a0578063a217fddf146102d1578063d547741f146102ef576100f5565b806366055159146101fa57806375b238fc1461021857806386f8e92c146102365780638bcf979c14610252576100f5565b80632e554076116100d35780632e5540761461018a5780632f2ff15d146101a657806336568abe146101c25780635f1d514e146101de576100f5565b806301ffc9a7146100fa5780630b91e28d1461012a578063248a9ca31461015a575b600080fd5b610114600480360381019061010f9190610adb565b61030b565b6040516101219190610b23565b60405180910390f35b610144600480360381019061013f9190610b74565b610385565b6040516101519190610c31565b60405180910390f35b610174600480360381019061016f9190610c89565b61047e565b6040516101819190610cc5565b60405180910390f35b6101a4600480360381019061019f9190610e15565b61049d565b005b6101c060048036038101906101bb9190610ebc565b610532565b005b6101dc60048036038101906101d79190610ebc565b610554565b005b6101f860048036038101906101f39190610efc565b6105cf565b005b61020261060a565b60405161020f9190610f38565b60405180910390f35b610220610610565b60405161022d9190610cc5565b60405180910390f35b610250600480360381019061024b9190610efc565b610617565b005b61025a610652565b6040516102679190610cc5565b60405180910390f35b61028a60048036038101906102859190610ebc565b610676565b6040516102979190610b23565b60405180910390f35b6102ba60048036038101906102b59190610b74565b6106e0565b6040516102c8929190610f53565b60405180910390f35b6102d961078c565b6040516102e69190610cc5565b60405180910390f35b61030960048036038101906103049190610ebc565b610793565b005b60007f7965db0b000000000000000000000000000000000000000000000000000000007bffffffffffffffffffffffffffffffffffffffffffffffffffffffff1916827bffffffffffffffffffffffffffffffffffffffffffffffffffffffff1916148061037e575061037d826107b5565b5b9050919050565b606060008211801561039957506002548211155b6103d8576040517f08c379a00000000000000000000000000000000000000000000000000000000081526004016103cf90610fcf565b60405180910390fd5b6001600083815260200190815260200160002060010180546103f99061101e565b80601f01602080910402602001604051908101604052809291908181526020018280546104259061101e565b80156104725780601f1061044757610100808354040283529160200191610472565b820191906000526020600020905b81548152906001019060200180831161045557829003601f168201915b50505050509050919050565b6000806000838152602001908152602001600020600101549050919050565b7fae4a0595970935aa5495afbbb72e5f1f6ff1062766b4a3028c0c9b7d5cf7e3456104c78161081f565b600260008154809291906104da9061107e565b9190505550604051806040016040528060025481526020018381525060016000600254815260200190815260200160002060008201518160000155602082015181600101908161052a9190611272565b509050505050565b61053b8261047e565b6105448161081f565b61054e8383610833565b50505050565b61055c610924565b73ffffffffffffffffffffffffffffffffffffffff168173ffffffffffffffffffffffffffffffffffffffff16146105c0576040517f6697b23200000000000000000000000000000000000000000000000000000000815260040160405180910390fd5b6105ca828261092c565b505050565b6000801b6105dc8161081f565b6106067fae4a0595970935aa5495afbbb72e5f1f6ff1062766b4a3028c0c9b7d5cf7e34583610532565b5050565b60025481565b6000801b81565b6000801b6106248161081f565b61064e7fae4a0595970935aa5495afbbb72e5f1f6ff1062766b4a3028c0c9b7d5cf7e34583610793565b5050565b7fae4a0595970935aa5495afbbb72e5f1f6ff1062766b4a3028c0c9b7d5cf7e34581565b600080600084815260200190815260200160002060000160008373ffffffffffffffffffffffffffffffffffffffff1673ffffffffffffffffffffffffffffffffffffffff16815260200190815260200160002060009054906101000a900460ff16905092915050565b60016020528060005260406000206000915090508060000154908060010180546107099061101e565b80601f01602080910402602001604051908101604052809291908181526020018280546107359061101e565b80156107825780601f1061075757610100808354040283529160200191610782565b820191906000526020600020905b81548152906001019060200180831161076557829003601f168201915b5050505050905082565b6000801b81565b61079c8261047e565b6107a58161081f565b6107af838361092c565b50505050565b60007f01ffc9a7000000000000000000000000000000000000000000000000000000007bffffffffffffffffffffffffffffffffffffffffffffffffffffffff1916827bffffffffffffffffffffffffffffffffffffffffffffffffffffffff1916149050919050565b6108308161082b610924565b610a1e565b50565b600061083f8383610676565b61091957600160008085815260200190815260200160002060000160008473ffffffffffffffffffffffffffffffffffffffff1673ffffffffffffffffffffffffffffffffffffffff16815260200190815260200160002060006101000a81548160ff0219169083151502179055506108b6610924565b73ffffffffffffffffffffffffffffffffffffffff168273ffffffffffffffffffffffffffffffffffffffff16847f2f8788117e7eff1d82e926ec794901d17c78024a50270940304540a733656f0d60405160405180910390a46001905061091e565b600090505b92915050565b600033905090565b60006109388383610676565b15610a1357600080600085815260200190815260200160002060000160008473ffffffffffffffffffffffffffffffffffffffff1673ffffffffffffffffffffffffffffffffffffffff16815260200190815260200160002060006101000a81548160ff0219169083151502179055506109b0610924565b73ffffffffffffffffffffffffffffffffffffffff168273ffffffffffffffffffffffffffffffffffffffff16847ff6391f5c32d9c69d2a47ea670b442974b53935d1edc7fd64eb21e047a839171b60405160405180910390a460019050610a18565b600090505b92915050565b610a288282610676565b610a6b5780826040517fe2517d3f000000000000000000000000000000000000000000000000000000008152600401610a62929190611353565b60405180910390fd5b5050565b6000604051905090565b600080fd5b600080fd5b60007fffffffff0000000000000000000000000000000000000000000000000000000082169050919050565b610ab881610a83565b8114610ac357600080fd5b50565b600081359050610ad581610aaf565b92915050565b600060208284031215610af157610af0610a79565b5b6000610aff84828501610ac6565b91505092915050565b60008115159050919050565b610b1d81610b08565b82525050565b6000602082019050610b386000830184610b14565b92915050565b6000819050919050565b610b5181610b3e565b8114610b5c57600080fd5b50565b600081359050610b6e81610b48565b92915050565b600060208284031215610b8a57610b89610a79565b5b6000610b9884828501610b5f565b91505092915050565b600081519050919050565b600082825260208201905092915050565b60005b83811015610bdb578082015181840152602081019050610bc0565b60008484015250505050565b6000601f19601f8301169050919050565b6000610c0382610ba1565b610c0d8185610bac565b9350610c1d818560208601610bbd565b610c2681610be7565b840191505092915050565b60006020820190508181036000830152610c4b8184610bf8565b905092915050565b6000819050919050565b610c6681610c53565b8114610c7157600080fd5b50565b600081359050610c8381610c5d565b92915050565b600060208284031215610c9f57610c9e610a79565b5b6000610cad84828501610c74565b91505092915050565b610cbf81610c53565b82525050565b6000602082019050610cda6000830184610cb6565b92915050565b600080fd5b600080fd5b7f4e487b7100000000000000000000000000000000000000000000000000000000600052604160045260246000fd5b610d2282610be7565b810181811067ffffffffffffffff82111715610d4157610d40610cea565b5b80604052505050565b6000610d54610a6f565b9050610d608282610d19565b919050565b600067ffffffffffffffff821115610d8057610d7f610cea565b5b610d8982610be7565b9050602081019050919050565b82818337600083830152505050565b6000610db8610db384610d65565b610d4a565b905082815260208101848484011115610dd457610dd3610ce5565b5b610ddf848285610d96565b509392505050565b600082601f830112610dfc57610dfb610ce0565b5b8135610e0c848260208601610da5565b91505092915050565b600060208284031215610e2b57610e2a610a79565b5b600082013567ffffffffffffffff811115610e4957610e48610a7e565b5b610e5584828501610de7565b91505092915050565b600073ffffffffffffffffffffffffffffffffffffffff82169050919050565b6000610e8982610e5e565b9050919050565b610e9981610e7e565b8114610ea457600080fd5b50565b600081359050610eb681610e90565b92915050565b60008060408385031215610ed357610ed2610a79565b5b6000610ee185828601610c74565b9250506020610ef285828601610ea7565b9150509250929050565b600060208284031215610f1257610f11610a79565b5b6000610f2084828501610ea7565b91505092915050565b610f3281610b3e565b82525050565b6000602082019050610f4d6000830184610f29565b92915050565b6000604082019050610f686000830185610f29565b8181036020830152610f7a8184610bf8565b90509392505050565b7f436f7572736520646f6573206e6f742065786973740000000000000000000000600082015250565b6000610fb9601583610bac565b9150610fc482610f83565b602082019050919050565b60006020820190508181036000830152610fe881610fac565b9050919050565b7f4e487b7100000000000000000000000000000000000000000000000000000000600052602260045260246000fd5b6000600282049050600182168061103657607f821691505b60208210810361104957611048610fef565b5b50919050565b7f4e487b7100000000000000000000000000000000000000000000000000000000600052601160045260246000fd5b600061108982610b3e565b91507fffffffffffffffffffffffffffffffffffffffffffffffffffffffffffffffff82036110bb576110ba61104f565b5b600182019050919050565b60008190508160005260206000209050919050565b60006020601f8301049050919050565b600082821b905092915050565b6000600883026111287fffffffffffffffffffffffffffffffffffffffffffffffffffffffffffffffff826110eb565b61113286836110eb565b95508019841693508086168417925050509392505050565b6000819050919050565b600061116f61116a61116584610b3e565b61114a565b610b3e565b9050919050565b6000819050919050565b61118983611154565b61119d61119582611176565b8484546110f8565b825550505050565b600090565b6111b26111a5565b6111bd818484611180565b505050565b5b818110156111e1576111d66000826111aa565b6001810190506111c3565b5050565b601f821115611226576111f7816110c6565b611200846110db565b8101602085101561120f578190505b61122361121b856110db565b8301826111c2565b50505b505050565b600082821c905092915050565b60006112496000198460080261122b565b1980831691505092915050565b60006112628383611238565b9150826002028217905092915050565b61127b82610ba1565b67ffffffffffffffff81111561129457611293610cea565b5b61129e825461101e565b6112a98282856111e5565b600060209050601f8311600181146112dc57600084156112ca578287015190505b6112d48582611256565b86555061133c565b601f1984166112ea866110c6565b60005b82811015611312578489015182556001820191506020850194506020810190506112ed565b8683101561132f578489015161132b601f891682611238565b8355505b6001600288020188555050505b505050505050565b61134d81610e7e565b82525050565b60006040820190506113686000830185611344565b6113756020830184610cb6565b939250505056fea2646970667358221220267520c4374ff697d410f4a914cd0452540f97de97db0dac397bf684fdef1a5c64736f6c634300081b0033",
  "linkReferences": {},
  "deployedLinkReferences": {}
}