{
  "_format": "hh-sol-artifact-1",
  "contractName": "StudentContract",
  "sourceName": "contracts/StudentContract.sol",
  "abi": [
    {
      "inputs": [],
      "stateMutability": "nonpayable",
      "type": "constructor"
    },
    {
      "inputs": [],
      "name": "AccessControlBadConfirmation",
      "type": "error"
    },
    {
      "inputs": [
        {
          "internalType": "address",
          "name": "account",
          "type": "address"
        },
        {
          "internalType": "bytes32",
          "name": "neededRole",
          "type": "bytes32"
        }
      ],
      "name": "AccessControlUnauthorizedAccount",
      "type": "error"
    },
    {
      "anonymous": false,
      "inputs": [
        {
          "indexed": true,
          "internalType": "bytes32",
          "name": "role",
          "type": "bytes32"
        },
        {
          "indexed": true,
          "internalType": "bytes32",
          "name": "previousAdminRole",
          "type": "bytes32"
        },
        {
          "indexed": true,
          "internalType": "bytes32",
          "name": "newAdminRole",
          "type": "bytes32"
        }
      ],
      "name": "RoleAdminChanged",
      "type": "event"
    },
    {
      "anonymous": false,
      "inputs": [
        {
          "indexed": true,
          "internalType": "bytes32",
          "name": "role",
          "type": "bytes32"
        },
        {
          "indexed": true,
          "internalType": "address",
          "name": "account",
          "type": "address"
        },
        {
          "indexed": true,
          "internalType": "address",
          "name": "sender",
          "type": "address"
        }
      ],
      "name": "RoleGranted",
      "type": "event"
    },
    {
      "anonymous": false,
      "inputs": [
        {
          "indexed": true,
          "internalType": "bytes32",
          "name": "role",
          "type": "bytes32"
        },
        {
          "indexed": true,
          "internalType": "address",
          "name": "account",
          "type": "address"
        },
        {
          "indexed": true,
          "internalType": "address",
          "name": "sender",
          "type": "address"
        }
      ],
      "name": "RoleRevoked",
      "type": "event"
    },
    {
      "inputs": [],
      "name": "ADMIN_ROLE",
      "outputs": [
        {
          "internalType": "bytes32",
          "name": "",
          "type": "bytes32"
        }
      ],
      "stateMutability": "view",
      "type": "function"
    },
    {
      "inputs": [],
      "name": "DEFAULT_ADMIN_ROLE",
      "outputs": [
        {
          "internalType": "bytes32",
          "name": "",
          "type": "bytes32"
        }
      ],
      "stateMutability": "view",
      "type": "function"
    },
    {
      "inputs": [
        {
          "internalType": "uint256",
          "name": "_courseId",
          "type": "uint256"
        }
      ],
      "name": "enrollInCourse",
      "outputs": [],
      "stateMutability": "nonpayable",
      "type": "function"
    },
    {
      "inputs": [
        {
          "internalType": "address",
          "name": "_student",
          "type": "address"
        }
      ],
      "name": "getEnrolledCourses",
      "outputs": [
        {
          "internalType": "uint256[]",
          "name": "",
          "type": "uint256[]"
        }
      ],
      "stateMutability": "view",
      "type": "function"
    },
    {
      "inputs": [
        {
          "internalType": "bytes32",
          "name": "role",
          "type": "bytes32"
        }
      ],
      "name": "getRoleAdmin",
      "outputs": [
        {
          "internalType": "bytes32",
          "name": "",
          "type": "bytes32"
        }
      ],
      "stateMutability": "view",
      "type": "function"
    },
    {
      "inputs": [
        {
          "internalType": "bytes32",
          "name": "role",
          "type": "bytes32"
        },
        {
          "internalType": "address",
          "name": "account",
          "type": "address"
        }
      ],
      "name": "grantRole",
      "outputs": [],
      "stateMutability": "nonpayable",
      "type": "function"
    },
    {
      "inputs": [
        {
          "internalType": "bytes32",
          "name": "role",
          "type": "bytes32"
        },
        {
          "internalType": "address",
          "name": "account",
          "type": "address"
        }
      ],
      "name": "hasRole",
      "outputs": [
        {
          "internalType": "bool",
          "name": "",
          "type": "bool"
        }
      ],
      "stateMutability": "view",
      "type": "function"
    },
    {
      "inputs": [
        {
          "internalType": "string",
          "name": "_name",
          "type": "string"
        }
      ],
      "name": "registerStudent",
      "outputs": [],
      "stateMutability": "nonpayable",
      "type": "function"
    },
    {
      "inputs": [
        {
          "internalType": "bytes32",
          "name": "role",
          "type": "bytes32"
        },
        {
          "internalType": "address",
          "name": "callerConfirmation",
          "type": "address"
        }
      ],
      "name": "renounceRole",
      "outputs": [],
      "stateMutability": "nonpayable",
      "type": "function"
    },
    {
      "inputs": [
        {
          "internalType": "bytes32",
          "name": "role",
          "type": "bytes32"
        },
        {
          "internalType": "address",
          "name": "account",
          "type": "address"
        }
      ],
      "name": "revokeRole",
      "outputs": [],
      "stateMutability": "nonpayable",
      "type": "function"
    },
    {
      "inputs": [
        {
          "internalType": "address",
          "name": "",
          "type": "address"
        }
      ],
      "name": "students",
      "outputs": [
        {
          "internalType": "string",
          "name": "name",
          "type": "string"
        }
      ],
      "stateMutability": "view",
      "type": "function"
    },
    {
      "inputs": [
        {
          "internalType": "bytes4",
          "name": "interfaceId",
          "type": "bytes4"
        }
      ],
      "name": "supportsInterface",
      "outputs": [
        {
          "internalType": "bool",
          "name": "",
          "type": "bool"
        }
      ],
      "stateMutability": "view",
      "type": "function"
    }
  ],
  "bytecode": "0x608060405234801561001057600080fd5b506100246000801b3361002a60201b60201c565b50610199565b600061003c838361012760201b60201c565b61011c57600160008085815260200190815260200160002060000160008473ffffffffffffffffffffffffffffffffffffffff1673ffffffffffffffffffffffffffffffffffffffff16815260200190815260200160002060006101000a81548160ff0219169083151502179055506100b961019160201b60201c565b73ffffffffffffffffffffffffffffffffffffffff168273ffffffffffffffffffffffffffffffffffffffff16847f2f8788117e7eff1d82e926ec794901d17c78024a50270940304540a733656f0d60405160405180910390a460019050610121565b600090505b92915050565b600080600084815260200190815260200160002060000160008373ffffffffffffffffffffffffffffffffffffffff1673ffffffffffffffffffffffffffffffffffffffff16815260200190815260200160002060009054906101000a900460ff16905092915050565b600033905090565b611573806101a86000396000f3fe608060405234801561001057600080fd5b50600436106100b45760003560e01c806371e174451161007157806371e174451461019d57806375b238fc146101b957806391d14854146101d7578063a217fddf14610207578063a6c807a914610225578063d547741f14610255576100b4565b806301ffc9a7146100b95780630993031e146100e9578063248a9ca3146101195780632f2ff15d1461014957806336568abe146101655780635e52da2714610181575b600080fd5b6100d360048036038101906100ce9190610b86565b610271565b6040516100e09190610bce565b60405180910390f35b61010360048036038101906100fe9190610c47565b6102eb565b6040516101109190610d3c565b60405180910390f35b610133600480360381019061012e9190610d94565b610385565b6040516101409190610dd0565b60405180910390f35b610163600480360381019061015e9190610deb565b6103a4565b005b61017f600480360381019061017a9190610deb565b6103c6565b005b61019b60048036038101906101969190610e57565b610441565b005b6101b760048036038101906101b29190610fca565b61063c565b005b6101c1610720565b6040516101ce9190610dd0565b60405180910390f35b6101f160048036038101906101ec9190610deb565b610727565b6040516101fe9190610bce565b60405180910390f35b61020f610791565b60405161021c9190610dd0565b60405180910390f35b61023f600480360381019061023a9190610c47565b610798565b60405161024c9190611092565b60405180910390f35b61026f600480360381019061026a9190610deb565b61083e565b005b60007f7965db0b000000000000000000000000000000000000000000000000000000007bffffffffffffffffffffffffffffffffffffffffffffffffffffffff1916827bffffffffffffffffffffffffffffffffffffffffffffffffffffffff191614806102e457506102e382610860565b5b9050919050565b6060600160008373ffffffffffffffffffffffffffffffffffffffff1673ffffffffffffffffffffffffffffffffffffffff16815260200190815260200160002060010180548060200260200160405190810160405280929190818152602001828054801561037957602002820191906000526020600020905b815481526020019060010190808311610365575b50505050509050919050565b6000806000838152602001908152602001600020600101549050919050565b6103ad82610385565b6103b6816108ca565b6103c083836108de565b50505050565b6103ce6109cf565b73ffffffffffffffffffffffffffffffffffffffff168173ffffffffffffffffffffffffffffffffffffffff1614610432576040517f6697b23200000000000000000000000000000000000000000000000000000000815260040160405180910390fd5b61043c82826109d7565b505050565b6000600160003373ffffffffffffffffffffffffffffffffffffffff1673ffffffffffffffffffffffffffffffffffffffff1681526020019081526020016000206000018054610490906110e3565b9050036104d2576040517f08c379a00000000000000000000000000000000000000000000000000000000081526004016104c990611160565b60405180910390fd5b60005b600160003373ffffffffffffffffffffffffffffffffffffffff1673ffffffffffffffffffffffffffffffffffffffff168152602001908152602001600020600101805490508110156105cf5781600160003373ffffffffffffffffffffffffffffffffffffffff1673ffffffffffffffffffffffffffffffffffffffff168152602001908152602001600020600101828154811061057757610576611180565b5b9060005260206000200154036105c2576040517f08c379a00000000000000000000000000000000000000000000000000000000081526004016105b9906111fb565b60405180910390fd5b80806001019150506104d5565b50600160003373ffffffffffffffffffffffffffffffffffffffff1673ffffffffffffffffffffffffffffffffffffffff16815260200190815260200160002060010181908060018154018082558091505060019003906000526020600020016000909190919091505550565b6000600160003373ffffffffffffffffffffffffffffffffffffffff1673ffffffffffffffffffffffffffffffffffffffff168152602001908152602001600020600001805461068b906110e3565b9050146106cd576040517f08c379a00000000000000000000000000000000000000000000000000000000081526004016106c490611267565b60405180910390fd5b80600160003373ffffffffffffffffffffffffffffffffffffffff1673ffffffffffffffffffffffffffffffffffffffff168152602001908152602001600020600001908161071c9190611433565b5050565b6000801b81565b600080600084815260200190815260200160002060000160008373ffffffffffffffffffffffffffffffffffffffff1673ffffffffffffffffffffffffffffffffffffffff16815260200190815260200160002060009054906101000a900460ff16905092915050565b6000801b81565b60016020528060005260406000206000915090508060000180546107bb906110e3565b80601f01602080910402602001604051908101604052809291908181526020018280546107e7906110e3565b80156108345780601f1061080957610100808354040283529160200191610834565b820191906000526020600020905b81548152906001019060200180831161081757829003601f168201915b5050505050905081565b61084782610385565b610850816108ca565b61085a83836109d7565b50505050565b60007f01ffc9a7000000000000000000000000000000000000000000000000000000007bffffffffffffffffffffffffffffffffffffffffffffffffffffffff1916827bffffffffffffffffffffffffffffffffffffffffffffffffffffffff1916149050919050565b6108db816108d66109cf565b610ac9565b50565b60006108ea8383610727565b6109c457600160008085815260200190815260200160002060000160008473ffffffffffffffffffffffffffffffffffffffff1673ffffffffffffffffffffffffffffffffffffffff16815260200190815260200160002060006101000a81548160ff0219169083151502179055506109616109cf565b73ffffffffffffffffffffffffffffffffffffffff168273ffffffffffffffffffffffffffffffffffffffff16847f2f8788117e7eff1d82e926ec794901d17c78024a50270940304540a733656f0d60405160405180910390a4600190506109c9565b600090505b92915050565b600033905090565b60006109e38383610727565b15610abe57600080600085815260200190815260200160002060000160008473ffffffffffffffffffffffffffffffffffffffff1673ffffffffffffffffffffffffffffffffffffffff16815260200190815260200160002060006101000a81548160ff021916908315150217905550610a5b6109cf565b73ffffffffffffffffffffffffffffffffffffffff168273ffffffffffffffffffffffffffffffffffffffff16847ff6391f5c32d9c69d2a47ea670b442974b53935d1edc7fd64eb21e047a839171b60405160405180910390a460019050610ac3565b600090505b92915050565b610ad38282610727565b610b165780826040517fe2517d3f000000000000000000000000000000000000000000000000000000008152600401610b0d929190611514565b60405180910390fd5b5050565b6000604051905090565b600080fd5b600080fd5b60007fffffffff0000000000000000000000000000000000000000000000000000000082169050919050565b610b6381610b2e565b8114610b6e57600080fd5b50565b600081359050610b8081610b5a565b92915050565b600060208284031215610b9c57610b9b610b24565b5b6000610baa84828501610b71565b91505092915050565b60008115159050919050565b610bc881610bb3565b82525050565b6000602082019050610be36000830184610bbf565b92915050565b600073ffffffffffffffffffffffffffffffffffffffff82169050919050565b6000610c1482610be9565b9050919050565b610c2481610c09565b8114610c2f57600080fd5b50565b600081359050610c4181610c1b565b92915050565b600060208284031215610c5d57610c5c610b24565b5b6000610c6b84828501610c32565b91505092915050565b600081519050919050565b600082825260208201905092915050565b6000819050602082019050919050565b6000819050919050565b610cb381610ca0565b82525050565b6000610cc58383610caa565b60208301905092915050565b6000602082019050919050565b6000610ce982610c74565b610cf38185610c7f565b9350610cfe83610c90565b8060005b83811015610d2f578151610d168882610cb9565b9750610d2183610cd1565b925050600181019050610d02565b5085935050505092915050565b60006020820190508181036000830152610d568184610cde565b905092915050565b6000819050919050565b610d7181610d5e565b8114610d7c57600080fd5b50565b600081359050610d8e81610d68565b92915050565b600060208284031215610daa57610da9610b24565b5b6000610db884828501610d7f565b91505092915050565b610dca81610d5e565b82525050565b6000602082019050610de56000830184610dc1565b92915050565b60008060408385031215610e0257610e01610b24565b5b6000610e1085828601610d7f565b9250506020610e2185828601610c32565b9150509250929050565b610e3481610ca0565b8114610e3f57600080fd5b50565b600081359050610e5181610e2b565b92915050565b600060208284031215610e6d57610e6c610b24565b5b6000610e7b84828501610e42565b91505092915050565b600080fd5b600080fd5b6000601f19601f8301169050919050565b7f4e487b7100000000000000000000000000000000000000000000000000000000600052604160045260246000fd5b610ed782610e8e565b810181811067ffffffffffffffff82111715610ef657610ef5610e9f565b5b80604052505050565b6000610f09610b1a565b9050610f158282610ece565b919050565b600067ffffffffffffffff821115610f3557610f34610e9f565b5b610f3e82610e8e565b9050602081019050919050565b82818337600083830152505050565b6000610f6d610f6884610f1a565b610eff565b905082815260208101848484011115610f8957610f88610e89565b5b610f94848285610f4b565b509392505050565b600082601f830112610fb157610fb0610e84565b5b8135610fc1848260208601610f5a565b91505092915050565b600060208284031215610fe057610fdf610b24565b5b600082013567ffffffffffffffff811115610ffe57610ffd610b29565b5b61100a84828501610f9c565b91505092915050565b600081519050919050565b600082825260208201905092915050565b60005b8381101561104d578082015181840152602081019050611032565b60008484015250505050565b600061106482611013565b61106e818561101e565b935061107e81856020860161102f565b61108781610e8e565b840191505092915050565b600060208201905081810360008301526110ac8184611059565b905092915050565b7f4e487b7100000000000000000000000000000000000000000000000000000000600052602260045260246000fd5b600060028204905060018216806110fb57607f821691505b60208210810361110e5761110d6110b4565b5b50919050565b7f53747564656e74206e6f74207265676973746572656400000000000000000000600082015250565b600061114a60168361101e565b915061115582611114565b602082019050919050565b600060208201905081810360008301526111798161113d565b9050919050565b7f4e487b7100000000000000000000000000000000000000000000000000000000600052603260045260246000fd5b7f416c726561647920656e726f6c6c656420696e207468697320636f7572736500600082015250565b60006111e5601f8361101e565b91506111f0826111af565b602082019050919050565b60006020820190508181036000830152611214816111d8565b9050919050565b7f53747564656e7420616c72656164792072656769737465726564000000000000600082015250565b6000611251601a8361101e565b915061125c8261121b565b602082019050919050565b6000602082019050818103600083015261128081611244565b9050919050565b60008190508160005260206000209050919050565b60006020601f8301049050919050565b600082821b905092915050565b6000600883026112e97fffffffffffffffffffffffffffffffffffffffffffffffffffffffffffffffff826112ac565b6112f386836112ac565b95508019841693508086168417925050509392505050565b6000819050919050565b600061133061132b61132684610ca0565b61130b565b610ca0565b9050919050565b6000819050919050565b61134a83611315565b61135e61135682611337565b8484546112b9565b825550505050565b600090565b611373611366565b61137e818484611341565b505050565b5b818110156113a25761139760008261136b565b600181019050611384565b5050565b601f8211156113e7576113b881611287565b6113c18461129c565b810160208510156113d0578190505b6113e46113dc8561129c565b830182611383565b50505b505050565b600082821c905092915050565b600061140a600019846008026113ec565b1980831691505092915050565b600061142383836113f9565b9150826002028217905092915050565b61143c82611013565b67ffffffffffffffff81111561145557611454610e9f565b5b61145f82546110e3565b61146a8282856113a6565b600060209050601f83116001811461149d576000841561148b578287015190505b6114958582611417565b8655506114fd565b601f1984166114ab86611287565b60005b828110156114d3578489015182556001820191506020850194506020810190506114ae565b868310156114f057848901516114ec601f8916826113f9565b8355505b6001600288020188555050505b505050505050565b61150e81610c09565b82525050565b60006040820190506115296000830185611505565b6115366020830184610dc1565b939250505056fea264697066735822122042dfc8df17987a7d385488a30197e9ceb4913a9baf24341d7dc8d9ab0ec77b3964736f6c634300081b0033",
  "linkReferences": {},
  "deployedLinkReferences": {}
}