{
  "_format": "hh-sol-artifact-1",
  "contractName": "StudentContract",
  "sourceName": "contracts/StudentContract.sol",
  "abi": [
    {
      "inputs": [],
      "stateMutability": "nonpayable",
      "type": "constructor"
    },
    {
      "inputs": [],
      "name": "AccessControlBadConfirmation",
      "type": "error"
    },
    {
      "inputs": [
        {
          "internalType": "address",
          "name": "account",
          "type": "address"
        },
        {
          "internalType": "bytes32",
          "name": "neededRole",
          "type": "bytes32"
        }
      ],
      "name": "AccessControlUnauthorizedAccount",
      "type": "error"
    },
    {
      "anonymous": false,
      "inputs": [
        {
          "indexed": true,
          "internalType": "bytes32",
          "name": "role",
          "type": "bytes32"
        },
        {
          "indexed": true,
          "internalType": "bytes32",
          "name": "previousAdminRole",
          "type": "bytes32"
        },
        {
          "indexed": true,
          "internalType": "bytes32",
          "name": "newAdminRole",
          "type": "bytes32"
        }
      ],
      "name": "RoleAdminChanged",
      "type": "event"
    },
    {
      "anonymous": false,
      "inputs": [
        {
          "indexed": true,
          "internalType": "bytes32",
          "name": "role",
          "type": "bytes32"
        },
        {
          "indexed": true,
          "internalType": "address",
          "name": "account",
          "type": "address"
        },
        {
          "indexed": true,
          "internalType": "address",
          "name": "sender",
          "type": "address"
        }
      ],
      "name": "RoleGranted",
      "type": "event"
    },
    {
      "anonymous": false,
      "inputs": [
        {
          "indexed": true,
          "internalType": "bytes32",
          "name": "role",
          "type": "bytes32"
        },
        {
          "indexed": true,
          "internalType": "address",
          "name": "account",
          "type": "address"
        },
        {
          "indexed": true,
          "internalType": "address",
          "name": "sender",
          "type": "address"
        }
      ],
      "name": "RoleRevoked",
      "type": "event"
    },
    {
      "inputs": [],
      "name": "ADMIN_ROLE",
      "outputs": [
        {
          "internalType": "bytes32",
          "name": "",
          "type": "bytes32"
        }
      ],
      "stateMutability": "view",
      "type": "function"
    },
    {
      "inputs": [],
      "name": "DEFAULT_ADMIN_ROLE",
      "outputs": [
        {
          "internalType": "bytes32",
          "name": "",
          "type": "bytes32"
        }
      ],
      "stateMutability": "view",
      "type": "function"
    },
    {
      "inputs": [],
      "name": "courseContractAddress",
      "outputs": [
        {
          "internalType": "address",
          "name": "",
          "type": "address"
        }
      ],
      "stateMutability": "view",
      "type": "function"
    },
    {
      "inputs": [
        {
          "internalType": "uint256",
          "name": "_courseId",
          "type": "uint256"
        }
      ],
      "name": "enrollInCourse",
      "outputs": [],
      "stateMutability": "payable",
      "type": "function"
    },
    {
      "inputs": [
        {
          "internalType": "address",
          "name": "_student",
          "type": "address"
        }
      ],
      "name": "getEnrolledCourses",
      "outputs": [
        {
          "internalType": "uint256[]",
          "name": "",
          "type": "uint256[]"
        }
      ],
      "stateMutability": "view",
      "type": "function"
    },
    {
      "inputs": [
        {
          "internalType": "bytes32",
          "name": "role",
          "type": "bytes32"
        }
      ],
      "name": "getRoleAdmin",
      "outputs": [
        {
          "internalType": "bytes32",
          "name": "",
          "type": "bytes32"
        }
      ],
      "stateMutability": "view",
      "type": "function"
    },
    {
      "inputs": [
        {
          "internalType": "address",
          "name": "_student",
          "type": "address"
        }
      ],
      "name": "getStudentHeadline",
      "outputs": [
        {
          "internalType": "string",
          "name": "",
          "type": "string"
        }
      ],
      "stateMutability": "view",
      "type": "function"
    },
    {
      "inputs": [
        {
          "internalType": "address",
          "name": "_student",
          "type": "address"
        }
      ],
      "name": "getStudentName",
      "outputs": [
        {
          "internalType": "string",
          "name": "",
          "type": "string"
        }
      ],
      "stateMutability": "view",
      "type": "function"
    },
    {
      "inputs": [
        {
          "internalType": "bytes32",
          "name": "role",
          "type": "bytes32"
        },
        {
          "internalType": "address",
          "name": "account",
          "type": "address"
        }
      ],
      "name": "grantRole",
      "outputs": [],
      "stateMutability": "nonpayable",
      "type": "function"
    },
    {
      "inputs": [
        {
          "internalType": "bytes32",
          "name": "role",
          "type": "bytes32"
        },
        {
          "internalType": "address",
          "name": "account",
          "type": "address"
        }
      ],
      "name": "hasRole",
      "outputs": [
        {
          "internalType": "bool",
          "name": "",
          "type": "bool"
        }
      ],
      "stateMutability": "view",
      "type": "function"
    },
    {
      "inputs": [
        {
          "internalType": "address",
          "name": "_student",
          "type": "address"
        }
      ],
      "name": "isRegistered",
      "outputs": [
        {
          "internalType": "bool",
          "name": "",
          "type": "bool"
        }
      ],
      "stateMutability": "view",
      "type": "function"
    },
    {
      "inputs": [
        {
          "internalType": "string",
          "name": "_firstName",
          "type": "string"
        },
        {
          "internalType": "string",
          "name": "_lastName",
          "type": "string"
        },
        {
          "internalType": "string",
          "name": "_headline",
          "type": "string"
        }
      ],
      "name": "registerStudent",
      "outputs": [],
      "stateMutability": "nonpayable",
      "type": "function"
    },
    {
      "inputs": [
        {
          "internalType": "bytes32",
          "name": "role",
          "type": "bytes32"
        },
        {
          "internalType": "address",
          "name": "callerConfirmation",
          "type": "address"
        }
      ],
      "name": "renounceRole",
      "outputs": [],
      "stateMutability": "nonpayable",
      "type": "function"
    },
    {
      "inputs": [
        {
          "internalType": "bytes32",
          "name": "role",
          "type": "bytes32"
        },
        {
          "internalType": "address",
          "name": "account",
          "type": "address"
        }
      ],
      "name": "revokeRole",
      "outputs": [],
      "stateMutability": "nonpayable",
      "type": "function"
    },
    {
      "inputs": [
        {
          "internalType": "address",
          "name": "_courseContractAddress",
          "type": "address"
        }
      ],
      "name": "setCourseContractAddress",
      "outputs": [],
      "stateMutability": "nonpayable",
      "type": "function"
    },
    {
      "inputs": [
        {
          "internalType": "address",
          "name": "",
          "type": "address"
        }
      ],
      "name": "students",
      "outputs": [
        {
          "internalType": "string",
          "name": "firstName",
          "type": "string"
        },
        {
          "internalType": "string",
          "name": "lastName",
          "type": "string"
        },
        {
          "internalType": "string",
          "name": "headline",
          "type": "string"
        }
      ],
      "stateMutability": "view",
      "type": "function"
    },
    {
      "inputs": [
        {
          "internalType": "bytes4",
          "name": "interfaceId",
          "type": "bytes4"
        }
      ],
      "name": "supportsInterface",
      "outputs": [
        {
          "internalType": "bool",
          "name": "",
          "type": "bool"
        }
      ],
      "stateMutability": "view",
      "type": "function"
    },
    {
      "inputs": [
        {
          "internalType": "string",
          "name": "_firstName",
          "type": "string"
        },
        {
          "internalType": "string",
          "name": "_lastName",
          "type": "string"
        },
        {
          "internalType": "string",
          "name": "_headline",
          "type": "string"
        }
      ],
      "name": "updateProfile",
      "outputs": [],
      "stateMutability": "nonpayable",
      "type": "function"
    }
  ],
  "bytecode": "0x608060405234801561001057600080fd5b506100246000801b3361002a60201b60201c565b50610199565b600061003c838361012760201b60201c565b61011c57600160008085815260200190815260200160002060000160008473ffffffffffffffffffffffffffffffffffffffff1673ffffffffffffffffffffffffffffffffffffffff16815260200190815260200160002060006101000a81548160ff0219169083151502179055506100b961019160201b60201c565b73ffffffffffffffffffffffffffffffffffffffff168273ffffffffffffffffffffffffffffffffffffffff16847f2f8788117e7eff1d82e926ec794901d17c78024a50270940304540a733656f0d60405160405180910390a460019050610121565b600090505b92915050565b600080600084815260200190815260200160002060000160008373ffffffffffffffffffffffffffffffffffffffff1673ffffffffffffffffffffffffffffffffffffffff16815260200190815260200160002060009054906101000a900460ff16905092915050565b600033905090565b612403806101a86000396000f3fe6080604052600436106101095760003560e01c806375b238fc11610095578063a6c807a911610064578063a6c807a914610380578063b125dd46146103bf578063c3c5a547146103fc578063d547741f14610439578063f1f0e9741461046257610109565b806375b238fc146102c457806391d14854146102ef57806393e47f151461032c578063a217fddf1461035557610109565b80632e0308fb116100dc5780632e0308fb146101ee5780632f2ff15d1461022b57806336568abe146102545780634c91ba3d1461027d5780635e52da27146102a857610109565b806301ffc9a71461010e5780630993031e1461014b5780631105a5eb14610188578063248a9ca3146101b1575b600080fd5b34801561011a57600080fd5b506101356004803603810190610130919061154a565b61048b565b6040516101429190611592565b60405180910390f35b34801561015757600080fd5b50610172600480360381019061016d919061160b565b610505565b60405161017f9190611700565b60405180910390f35b34801561019457600080fd5b506101af60048036038101906101aa9190611868565b61059f565b005b3480156101bd57600080fd5b506101d860048036038101906101d39190611945565b610725565b6040516101e59190611981565b60405180910390f35b3480156101fa57600080fd5b506102156004803603810190610210919061160b565b610744565b6040516102229190611a1b565b60405180910390f35b34801561023757600080fd5b50610252600480360381019061024d9190611a3d565b6107f1565b005b34801561026057600080fd5b5061027b60048036038101906102769190611a3d565b610813565b005b34801561028957600080fd5b5061029261088e565b60405161029f9190611a8c565b60405180910390f35b6102c260048036038101906102bd9190611ad3565b6108b4565b005b3480156102d057600080fd5b506102d9610cc1565b6040516102e69190611981565b60405180910390f35b3480156102fb57600080fd5b5061031660048036038101906103119190611a3d565b610cc8565b6040516103239190611592565b60405180910390f35b34801561033857600080fd5b50610353600480360381019061034e9190611868565b610d32565b005b34801561036157600080fd5b5061036a610eb8565b6040516103779190611981565b60405180910390f35b34801561038c57600080fd5b506103a760048036038101906103a2919061160b565b610ebf565b6040516103b693929190611b00565b60405180910390f35b3480156103cb57600080fd5b506103e660048036038101906103e1919061160b565b611081565b6040516103f39190611a1b565b60405180910390f35b34801561040857600080fd5b50610423600480360381019061041e919061160b565b611155565b6040516104309190611592565b60405180910390f35b34801561044557600080fd5b50610460600480360381019061045b9190611a3d565b6111b0565b005b34801561046e57600080fd5b506104896004803603810190610484919061160b565b6111d2565b005b60007f7965db0b000000000000000000000000000000000000000000000000000000007bffffffffffffffffffffffffffffffffffffffffffffffffffffffff1916827bffffffffffffffffffffffffffffffffffffffffffffffffffffffff191614806104fe57506104fd82611224565b5b9050919050565b6060600160008373ffffffffffffffffffffffffffffffffffffffff1673ffffffffffffffffffffffffffffffffffffffff16815260200190815260200160002060030180548060200260200160405190810160405280929190818152602001828054801561059357602002820191906000526020600020905b81548152602001906001019080831161057f575b50505050509050919050565b6000600160003373ffffffffffffffffffffffffffffffffffffffff1673ffffffffffffffffffffffffffffffffffffffff16815260200190815260200160002060000180546105ee90611b7b565b905003610630576040517f08c379a000000000000000000000000000000000000000000000000000000000815260040161062790611bf8565b60405180910390fd5b82600160003373ffffffffffffffffffffffffffffffffffffffff1673ffffffffffffffffffffffffffffffffffffffff168152602001908152602001600020600001908161067f9190611dc4565b5081600160003373ffffffffffffffffffffffffffffffffffffffff1673ffffffffffffffffffffffffffffffffffffffff16815260200190815260200160002060010190816106cf9190611dc4565b5080600160003373ffffffffffffffffffffffffffffffffffffffff1673ffffffffffffffffffffffffffffffffffffffff168152602001908152602001600020600201908161071f9190611dc4565b50505050565b6000806000838152602001908152602001600020600101549050919050565b6060600160008373ffffffffffffffffffffffffffffffffffffffff1673ffffffffffffffffffffffffffffffffffffffff168152602001908152602001600020600001600160008473ffffffffffffffffffffffffffffffffffffffff1673ffffffffffffffffffffffffffffffffffffffff1681526020019081526020016000206001016040516020016107db929190611f70565b6040516020818303038152906040529050919050565b6107fa82610725565b6108038161128e565b61080d83836112a2565b50505050565b61081b611393565b73ffffffffffffffffffffffffffffffffffffffff168173ffffffffffffffffffffffffffffffffffffffff161461087f576040517f6697b23200000000000000000000000000000000000000000000000000000000815260040160405180910390fd5b610889828261139b565b505050565b600260009054906101000a900473ffffffffffffffffffffffffffffffffffffffff1681565b6000600160003373ffffffffffffffffffffffffffffffffffffffff1673ffffffffffffffffffffffffffffffffffffffff168152602001908152602001600020600001805461090390611b7b565b905003610945576040517f08c379a000000000000000000000000000000000000000000000000000000000815260040161093c90611bf8565b60405180910390fd5b60008111610988576040517f08c379a000000000000000000000000000000000000000000000000000000000815260040161097f90611feb565b60405180910390fd5b600073ffffffffffffffffffffffffffffffffffffffff16600260009054906101000a900473ffffffffffffffffffffffffffffffffffffffff1673ffffffffffffffffffffffffffffffffffffffff1603610a19576040517f08c379a0000000000000000000000000000000000000000000000000000000008152600401610a1090612057565b60405180910390fd5b6000600260009054906101000a900473ffffffffffffffffffffffffffffffffffffffff1690506000808273ffffffffffffffffffffffffffffffffffffffff16630b91e28d856040518263ffffffff1660e01b8152600401610a7c9190612086565b600060405180830381865afa158015610a99573d6000803e3d6000fd5b505050506040513d6000823e3d601f19601f82011682018060405250810190610ac2919061213b565b505094509450505050813414610b0d576040517f08c379a0000000000000000000000000000000000000000000000000000000008152600401610b049061227d565b60405180910390fd5b60005b600160003373ffffffffffffffffffffffffffffffffffffffff1673ffffffffffffffffffffffffffffffffffffffff16815260200190815260200160002060030180549050811015610c0a5784600160003373ffffffffffffffffffffffffffffffffffffffff1673ffffffffffffffffffffffffffffffffffffffff1681526020019081526020016000206003018281548110610bb257610bb161229d565b5b906000526020600020015403610bfd576040517f08c379a0000000000000000000000000000000000000000000000000000000008152600401610bf490612318565b60405180910390fd5b8080600101915050610b10565b50600160003373ffffffffffffffffffffffffffffffffffffffff1673ffffffffffffffffffffffffffffffffffffffff1681526020019081526020016000206003018490806001815401808255809150506001900390600052602060002001600090919091909150558073ffffffffffffffffffffffffffffffffffffffff166108fc349081150290604051600060405180830381858888f19350505050158015610cba573d6000803e3d6000fd5b5050505050565b6000801b81565b600080600084815260200190815260200160002060000160008373ffffffffffffffffffffffffffffffffffffffff1673ffffffffffffffffffffffffffffffffffffffff16815260200190815260200160002060009054906101000a900460ff16905092915050565b6000600160003373ffffffffffffffffffffffffffffffffffffffff1673ffffffffffffffffffffffffffffffffffffffff1681526020019081526020016000206000018054610d8190611b7b565b905014610dc3576040517f08c379a0000000000000000000000000000000000000000000000000000000008152600401610dba90612384565b60405180910390fd5b82600160003373ffffffffffffffffffffffffffffffffffffffff1673ffffffffffffffffffffffffffffffffffffffff1681526020019081526020016000206000019081610e129190611dc4565b5081600160003373ffffffffffffffffffffffffffffffffffffffff1673ffffffffffffffffffffffffffffffffffffffff1681526020019081526020016000206001019081610e629190611dc4565b5080600160003373ffffffffffffffffffffffffffffffffffffffff1673ffffffffffffffffffffffffffffffffffffffff1681526020019081526020016000206002019081610eb29190611dc4565b50505050565b6000801b81565b6001602052806000526040600020600091509050806000018054610ee290611b7b565b80601f0160208091040260200160405190810160405280929190818152602001828054610f0e90611b7b565b8015610f5b5780601f10610f3057610100808354040283529160200191610f5b565b820191906000526020600020905b815481529060010190602001808311610f3e57829003601f168201915b505050505090806001018054610f7090611b7b565b80601f0160208091040260200160405190810160405280929190818152602001828054610f9c90611b7b565b8015610fe95780601f10610fbe57610100808354040283529160200191610fe9565b820191906000526020600020905b815481529060010190602001808311610fcc57829003601f168201915b505050505090806002018054610ffe90611b7b565b80601f016020809104026020016040519081016040528092919081815260200182805461102a90611b7b565b80156110775780601f1061104c57610100808354040283529160200191611077565b820191906000526020600020905b81548152906001019060200180831161105a57829003601f168201915b5050505050905083565b6060600160008373ffffffffffffffffffffffffffffffffffffffff1673ffffffffffffffffffffffffffffffffffffffff16815260200190815260200160002060020180546110d090611b7b565b80601f01602080910402602001604051908101604052809291908181526020018280546110fc90611b7b565b80156111495780601f1061111e57610100808354040283529160200191611149565b820191906000526020600020905b81548152906001019060200180831161112c57829003601f168201915b50505050509050919050565b600080600160008473ffffffffffffffffffffffffffffffffffffffff1673ffffffffffffffffffffffffffffffffffffffff16815260200190815260200160002060000180546111a590611b7b565b905014159050919050565b6111b982610725565b6111c28161128e565b6111cc838361139b565b50505050565b6000801b6111df8161128e565b81600260006101000a81548173ffffffffffffffffffffffffffffffffffffffff021916908373ffffffffffffffffffffffffffffffffffffffff1602179055505050565b60007f01ffc9a7000000000000000000000000000000000000000000000000000000007bffffffffffffffffffffffffffffffffffffffffffffffffffffffff1916827bffffffffffffffffffffffffffffffffffffffffffffffffffffffff1916149050919050565b61129f8161129a611393565b61148d565b50565b60006112ae8383610cc8565b61138857600160008085815260200190815260200160002060000160008473ffffffffffffffffffffffffffffffffffffffff1673ffffffffffffffffffffffffffffffffffffffff16815260200190815260200160002060006101000a81548160ff021916908315150217905550611325611393565b73ffffffffffffffffffffffffffffffffffffffff168273ffffffffffffffffffffffffffffffffffffffff16847f2f8788117e7eff1d82e926ec794901d17c78024a50270940304540a733656f0d60405160405180910390a46001905061138d565b600090505b92915050565b600033905090565b60006113a78383610cc8565b1561148257600080600085815260200190815260200160002060000160008473ffffffffffffffffffffffffffffffffffffffff1673ffffffffffffffffffffffffffffffffffffffff16815260200190815260200160002060006101000a81548160ff02191690831515021790555061141f611393565b73ffffffffffffffffffffffffffffffffffffffff168273ffffffffffffffffffffffffffffffffffffffff16847ff6391f5c32d9c69d2a47ea670b442974b53935d1edc7fd64eb21e047a839171b60405160405180910390a460019050611487565b600090505b92915050565b6114978282610cc8565b6114da5780826040517fe2517d3f0000000000000000000000000000000000000000000000000000000081526004016114d19291906123a4565b60405180910390fd5b5050565b6000604051905090565b600080fd5b600080fd5b60007fffffffff0000000000000000000000000000000000000000000000000000000082169050919050565b611527816114f2565b811461153257600080fd5b50565b6000813590506115448161151e565b92915050565b6000602082840312156115605761155f6114e8565b5b600061156e84828501611535565b91505092915050565b60008115159050919050565b61158c81611577565b82525050565b60006020820190506115a76000830184611583565b92915050565b600073ffffffffffffffffffffffffffffffffffffffff82169050919050565b60006115d8826115ad565b9050919050565b6115e8816115cd565b81146115f357600080fd5b50565b600081359050611605816115df565b92915050565b600060208284031215611621576116206114e8565b5b600061162f848285016115f6565b91505092915050565b600081519050919050565b600082825260208201905092915050565b6000819050602082019050919050565b6000819050919050565b61167781611664565b82525050565b6000611689838361166e565b60208301905092915050565b6000602082019050919050565b60006116ad82611638565b6116b78185611643565b93506116c283611654565b8060005b838110156116f35781516116da888261167d565b97506116e583611695565b9250506001810190506116c6565b5085935050505092915050565b6000602082019050818103600083015261171a81846116a2565b905092915050565b600080fd5b600080fd5b6000601f19601f8301169050919050565b7f4e487b7100000000000000000000000000000000000000000000000000000000600052604160045260246000fd5b6117758261172c565b810181811067ffffffffffffffff821117156117945761179361173d565b5b80604052505050565b60006117a76114de565b90506117b3828261176c565b919050565b600067ffffffffffffffff8211156117d3576117d261173d565b5b6117dc8261172c565b9050602081019050919050565b82818337600083830152505050565b600061180b611806846117b8565b61179d565b90508281526020810184848401111561182757611826611727565b5b6118328482856117e9565b509392505050565b600082601f83011261184f5761184e611722565b5b813561185f8482602086016117f8565b91505092915050565b600080600060608486031215611881576118806114e8565b5b600084013567ffffffffffffffff81111561189f5761189e6114ed565b5b6118ab8682870161183a565b935050602084013567ffffffffffffffff8111156118cc576118cb6114ed565b5b6118d88682870161183a565b925050604084013567ffffffffffffffff8111156118f9576118f86114ed565b5b6119058682870161183a565b9150509250925092565b6000819050919050565b6119228161190f565b811461192d57600080fd5b50565b60008135905061193f81611919565b92915050565b60006020828403121561195b5761195a6114e8565b5b600061196984828501611930565b91505092915050565b61197b8161190f565b82525050565b60006020820190506119966000830184611972565b92915050565b600081519050919050565b600082825260208201905092915050565b60005b838110156119d65780820151818401526020810190506119bb565b60008484015250505050565b60006119ed8261199c565b6119f781856119a7565b9350611a078185602086016119b8565b611a108161172c565b840191505092915050565b60006020820190508181036000830152611a3581846119e2565b905092915050565b60008060408385031215611a5457611a536114e8565b5b6000611a6285828601611930565b9250506020611a73858286016115f6565b9150509250929050565b611a86816115cd565b82525050565b6000602082019050611aa16000830184611a7d565b92915050565b611ab081611664565b8114611abb57600080fd5b50565b600081359050611acd81611aa7565b92915050565b600060208284031215611ae957611ae86114e8565b5b6000611af784828501611abe565b91505092915050565b60006060820190508181036000830152611b1a81866119e2565b90508181036020830152611b2e81856119e2565b90508181036040830152611b4281846119e2565b9050949350505050565b7f4e487b7100000000000000000000000000000000000000000000000000000000600052602260045260246000fd5b60006002820490506001821680611b9357607f821691505b602082108103611ba657611ba5611b4c565b5b50919050565b7f53747564656e74206e6f74207265676973746572656400000000000000000000600082015250565b6000611be26016836119a7565b9150611bed82611bac565b602082019050919050565b60006020820190508181036000830152611c1181611bd5565b9050919050565b60008190508160005260206000209050919050565b60006020601f8301049050919050565b600082821b905092915050565b600060088302611c7a7fffffffffffffffffffffffffffffffffffffffffffffffffffffffffffffffff82611c3d565b611c848683611c3d565b95508019841693508086168417925050509392505050565b6000819050919050565b6000611cc1611cbc611cb784611664565b611c9c565b611664565b9050919050565b6000819050919050565b611cdb83611ca6565b611cef611ce782611cc8565b848454611c4a565b825550505050565b600090565b611d04611cf7565b611d0f818484611cd2565b505050565b5b81811015611d3357611d28600082611cfc565b600181019050611d15565b5050565b601f821115611d7857611d4981611c18565b611d5284611c2d565b81016020851015611d61578190505b611d75611d6d85611c2d565b830182611d14565b50505b505050565b600082821c905092915050565b6000611d9b60001984600802611d7d565b1980831691505092915050565b6000611db48383611d8a565b9150826002028217905092915050565b611dcd8261199c565b67ffffffffffffffff811115611de657611de561173d565b5b611df08254611b7b565b611dfb828285611d37565b600060209050601f831160018114611e2e5760008415611e1c578287015190505b611e268582611da8565b865550611e8e565b601f198416611e3c86611c18565b60005b82811015611e6457848901518255600182019150602085019450602081019050611e3f565b86831015611e815784890151611e7d601f891682611d8a565b8355505b6001600288020188555050505b505050505050565b600081905092915050565b60008154611eae81611b7b565b611eb88186611e96565b94506001821660008114611ed35760018114611ee857611f1b565b60ff1983168652811515820286019350611f1b565b611ef185611c18565b60005b83811015611f1357815481890152600182019150602081019050611ef4565b838801955050505b50505092915050565b7f2000000000000000000000000000000000000000000000000000000000000000600082015250565b6000611f5a600183611e96565b9150611f6582611f24565b600182019050919050565b6000611f7c8285611ea1565b9150611f8782611f4d565b9150611f938284611ea1565b91508190509392505050565b7f496e76616c696420636f75727365204944000000000000000000000000000000600082015250565b6000611fd56011836119a7565b9150611fe082611f9f565b602082019050919050565b6000602082019050818103600083015261200481611fc8565b9050919050565b7f436f75727365436f6e74726163742061646472657373206e6f74207365740000600082015250565b6000612041601e836119a7565b915061204c8261200b565b602082019050919050565b6000602082019050818103600083015261207081612034565b9050919050565b61208081611664565b82525050565b600060208201905061209b6000830184612077565b92915050565b6000815190506120b081611aa7565b92915050565b60006120c96120c4846117b8565b61179d565b9050828152602081018484840111156120e5576120e4611727565b5b6120f08482856119b8565b509392505050565b600082601f83011261210d5761210c611722565b5b815161211d8482602086016120b6565b91505092915050565b600081519050612135816115df565b92915050565b600080600080600080600060e0888a03121561215a576121596114e8565b5b60006121688a828b016120a1565b975050602088015167ffffffffffffffff811115612189576121886114ed565b5b6121958a828b016120f8565b965050604088015167ffffffffffffffff8111156121b6576121b56114ed565b5b6121c28a828b016120f8565b95505060606121d38a828b016120a1565b94505060806121e48a828b01612126565b93505060a088015167ffffffffffffffff811115612205576122046114ed565b5b6122118a828b016120f8565b92505060c06122228a828b016120a1565b91505092959891949750929550565b7f496e636f7272656374207061796d656e7420616d6f756e740000000000000000600082015250565b60006122676018836119a7565b915061227282612231565b602082019050919050565b600060208201905081810360008301526122968161225a565b9050919050565b7f4e487b7100000000000000000000000000000000000000000000000000000000600052603260045260246000fd5b7f416c726561647920656e726f6c6c656420696e207468697320636f7572736500600082015250565b6000612302601f836119a7565b915061230d826122cc565b602082019050919050565b60006020820190508181036000830152612331816122f5565b9050919050565b7f53747564656e7420616c72656164792072656769737465726564000000000000600082015250565b600061236e601a836119a7565b915061237982612338565b602082019050919050565b6000602082019050818103600083015261239d81612361565b9050919050565b60006040820190506123b96000830185611a7d565b6123c66020830184611972565b939250505056fea26469706673582212204d2dca16a84d68ab4116cf5a9626e137164e58cde8cc7afe2b6b04618de1901a64736f6c634300081b0033",
  "linkReferences": {},
  "deployedLinkReferences": {}
}